{
  "_format": "hh-sol-artifact-1",
  "contractName": "TaskAgreement",
  "sourceName": "contracts/TaskAgreement.sol",
  "abi": [
    {
      "anonymous": false,
      "inputs": [
        {
          "indexed": false,
          "internalType": "uint256",
          "name": "id",
          "type": "uint256"
        },
        {
          "components": [
            {
              "internalType": "uint256",
              "name": "id",
              "type": "uint256"
            },
            {
              "internalType": "uint256",
              "name": "price",
              "type": "uint256"
            },
            {
              "internalType": "string",
              "name": "description",
              "type": "string"
            },
            {
              "components": [
                {
                  "internalType": "address payable",
                  "name": "to",
                  "type": "address"
                },
                {
                  "internalType": "string[]",
                  "name": "evidence",
                  "type": "string[]"
                },
                {
                  "internalType": "bool",
                  "name": "approved",
                  "type": "bool"
                }
              ],
              "internalType": "struct TaskAgreement.User",
              "name": "vendor",
              "type": "tuple"
            },
            {
              "components": [
                {
                  "internalType": "address payable",
                  "name": "to",
                  "type": "address"
                },
                {
                  "internalType": "string[]",
                  "name": "evidence",
                  "type": "string[]"
                },
                {
                  "internalType": "bool",
                  "name": "approved",
                  "type": "bool"
                }
              ],
              "internalType": "struct TaskAgreement.User",
              "name": "client",
              "type": "tuple"
            },
            {
              "components": [
                {
                  "internalType": "address payable",
                  "name": "to",
                  "type": "address"
                },
                {
                  "internalType": "string[]",
                  "name": "evidence",
                  "type": "string[]"
                },
                {
                  "internalType": "bool",
                  "name": "approved",
                  "type": "bool"
                }
              ],
              "internalType": "struct TaskAgreement.User",
              "name": "thirdParty",
              "type": "tuple"
            },
            {
              "internalType": "enum TaskAgreement.DisputeStage",
              "name": "dispute",
              "type": "uint8"
            },
            {
              "internalType": "bool",
              "name": "completed",
              "type": "bool"
            },
            {
              "internalType": "uint256",
              "name": "expiration",
              "type": "uint256"
            }
          ],
          "indexed": false,
          "internalType": "struct TaskAgreement.Task",
          "name": "task",
          "type": "tuple"
        },
        {
          "indexed": false,
          "internalType": "bool",
          "name": "success",
          "type": "bool"
        }
      ],
      "name": "TaskCreated",
      "type": "event"
    },
    {
      "inputs": [
        {
          "internalType": "uint256",
          "name": "taskId",
          "type": "uint256"
        },
        {
          "internalType": "string",
          "name": "evidence",
          "type": "string"
        }
      ],
      "name": "addEvidence",
      "outputs": [
        {
          "internalType": "bool",
          "name": "",
          "type": "bool"
        }
      ],
      "stateMutability": "nonpayable",
      "type": "function"
    },
    {
      "inputs": [
        {
          "internalType": "uint256",
          "name": "taskId",
          "type": "uint256"
        }
      ],
      "name": "addFunds",
      "outputs": [
        {
          "internalType": "bool",
          "name": "",
          "type": "bool"
        }
      ],
      "stateMutability": "payable",
      "type": "function"
    },
    {
      "inputs": [
        {
          "internalType": "uint256",
          "name": "taskId",
          "type": "uint256"
        },
        {
          "internalType": "uint256",
          "name": "time",
          "type": "uint256"
        }
      ],
      "name": "addTime",
      "outputs": [
        {
          "internalType": "bool",
          "name": "",
          "type": "bool"
        }
      ],
      "stateMutability": "nonpayable",
      "type": "function"
    },
    {
      "inputs": [
        {
          "internalType": "uint256",
          "name": "taskId",
          "type": "uint256"
        }
      ],
      "name": "approveTask",
      "outputs": [
        {
          "internalType": "bool",
          "name": "",
          "type": "bool"
        }
      ],
      "stateMutability": "nonpayable",
      "type": "function"
    },
    {
      "inputs": [
        {
          "internalType": "uint256",
          "name": "taskId",
          "type": "uint256"
        }
      ],
      "name": "assignThirdParty",
      "outputs": [
        {
          "internalType": "bool",
          "name": "",
          "type": "bool"
        }
      ],
      "stateMutability": "nonpayable",
      "type": "function"
    },
    {
      "inputs": [],
      "name": "commission",
      "outputs": [
        {
          "internalType": "uint256",
          "name": "",
          "type": "uint256"
        }
      ],
      "stateMutability": "view",
      "type": "function"
    },
    {
      "inputs": [
        {
          "internalType": "address payable",
          "name": "vendorAddress",
          "type": "address"
        },
        {
          "internalType": "string",
          "name": "description",
          "type": "string"
        },
        {
          "internalType": "uint256",
          "name": "expiresIn",
          "type": "uint256"
        }
      ],
      "name": "createTask",
      "outputs": [],
      "stateMutability": "payable",
      "type": "function"
    },
    {
      "inputs": [
        {
          "internalType": "uint256",
          "name": "taskId",
          "type": "uint256"
        }
      ],
      "name": "disapproveTask",
      "outputs": [
        {
          "internalType": "bool",
          "name": "",
          "type": "bool"
        }
      ],
      "stateMutability": "nonpayable",
      "type": "function"
    },
    {
      "inputs": [
        {
          "internalType": "uint256",
          "name": "taskId",
          "type": "uint256"
        }
      ],
      "name": "expireTask",
      "outputs": [
        {
          "internalType": "bool",
          "name": "",
          "type": "bool"
        }
      ],
      "stateMutability": "nonpayable",
      "type": "function"
    },
    {
      "inputs": [],
      "name": "getDisputedTasks",
      "outputs": [
        {
          "components": [
            {
              "internalType": "uint256",
              "name": "id",
              "type": "uint256"
            },
            {
              "internalType": "string",
              "name": "description",
              "type": "string"
            }
          ],
          "internalType": "struct TaskAgreement.TaskRef[]",
          "name": "",
          "type": "tuple[]"
        }
      ],
      "stateMutability": "view",
      "type": "function"
    },
    {
      "inputs": [
        {
          "internalType": "uint256",
          "name": "taskId",
          "type": "uint256"
        }
      ],
      "name": "getTask",
      "outputs": [
        {
          "components": [
            {
              "internalType": "uint256",
              "name": "id",
              "type": "uint256"
            },
            {
              "internalType": "uint256",
              "name": "price",
              "type": "uint256"
            },
            {
              "internalType": "string",
              "name": "description",
              "type": "string"
            },
            {
              "components": [
                {
                  "internalType": "address payable",
                  "name": "to",
                  "type": "address"
                },
                {
                  "internalType": "string[]",
                  "name": "evidence",
                  "type": "string[]"
                },
                {
                  "internalType": "bool",
                  "name": "approved",
                  "type": "bool"
                }
              ],
              "internalType": "struct TaskAgreement.User",
              "name": "vendor",
              "type": "tuple"
            },
            {
              "components": [
                {
                  "internalType": "address payable",
                  "name": "to",
                  "type": "address"
                },
                {
                  "internalType": "string[]",
                  "name": "evidence",
                  "type": "string[]"
                },
                {
                  "internalType": "bool",
                  "name": "approved",
                  "type": "bool"
                }
              ],
              "internalType": "struct TaskAgreement.User",
              "name": "client",
              "type": "tuple"
            },
            {
              "components": [
                {
                  "internalType": "address payable",
                  "name": "to",
                  "type": "address"
                },
                {
                  "internalType": "string[]",
                  "name": "evidence",
                  "type": "string[]"
                },
                {
                  "internalType": "bool",
                  "name": "approved",
                  "type": "bool"
                }
              ],
              "internalType": "struct TaskAgreement.User",
              "name": "thirdParty",
              "type": "tuple"
            },
            {
              "internalType": "enum TaskAgreement.DisputeStage",
              "name": "dispute",
              "type": "uint8"
            },
            {
              "internalType": "bool",
              "name": "completed",
              "type": "bool"
            },
            {
              "internalType": "uint256",
              "name": "expiration",
              "type": "uint256"
            }
          ],
          "internalType": "struct TaskAgreement.Task",
          "name": "",
          "type": "tuple"
        }
      ],
      "stateMutability": "view",
      "type": "function"
    },
    {
      "inputs": [],
      "name": "getUserTasks",
      "outputs": [
        {
          "components": [
            {
              "internalType": "uint256",
              "name": "id",
              "type": "uint256"
            },
            {
              "internalType": "string",
              "name": "description",
              "type": "string"
            }
          ],
          "internalType": "struct TaskAgreement.TaskRef[]",
          "name": "",
          "type": "tuple[]"
        }
      ],
      "stateMutability": "view",
      "type": "function"
    }
  ],
  "bytecode": "0x6080604052600460005534801561001557600080fd5b50613ff6806100256000396000f3fe6080604052600436106100a75760003560e01c8063791581c611610064578063791581c614610190578063b0227721146101b0578063be999705146101c5578063c2aba82c146101d8578063e1489191146101f8578063fd24bf4b1461021c57600080fd5b80630a07fae6146100ac5780631c3665eb146100e15780631d65e77e1461010157806334112f5f1461012e578063423bfe491461015057806362ecc47a14610170575b600080fd5b3480156100b857600080fd5b506100cc6100c73660046139c9565b610231565b60405190151581526020015b60405180910390f35b3480156100ed57600080fd5b506100cc6100fc3660046139e1565b610e25565b34801561010d57600080fd5b5061012161011c3660046139c9565b61147f565b6040516100d89190613e92565b34801561013a57600080fd5b506101436118e7565b6040516100d89190613c21565b34801561015c57600080fd5b506100cc61016b3660046139c9565b6119ec565b34801561017c57600080fd5b506100cc61018b3660046139c9565b611dfe565b34801561019c57600080fd5b506100cc6101ab366004613a58565b611e7e565b3480156101bc57600080fd5b50610143611fc5565b6100cc6101d33660046139c9565b6120c0565b3480156101e457600080fd5b506100cc6101f33660046139c9565b612223565b34801561020457600080fd5b5061020e60005481565b6040519081526020016100d8565b61022f61022a3660046138f7565b612f2c565b005b600081600154811061025e5760405162461bcd60e51b815260040161025590613c94565b60405180910390fd5b6000838152600460205260409020600c01548390610100900460ff16156102975760405162461bcd60e51b815260040161025590613d0c565b836000600460008381526020019081526020016000206040518061012001604052908160008201548152602001600182015481526020016002820180546102dd90613f3e565b80601f016020809104026020016040519081016040528092919081815260200182805461030990613f3e565b80156103565780601f1061032b57610100808354040283529160200191610356565b820191906000526020600020905b81548152906001019060200180831161033957829003601f168201915b5050509183525050604080516060810182526003840180546001600160a01b0316825260048501805484516020828102820181019096528181529585019593949293858401939092919060009084015b828210156104525783829060005260206000200180546103c590613f3e565b80601f01602080910402602001604051908101604052809291908181526020018280546103f190613f3e565b801561043e5780601f106104135761010080835404028352916020019161043e565b820191906000526020600020905b81548152906001019060200180831161042157829003601f168201915b5050505050815260200190600101906103a6565b505050908252506002919091015460ff161515602091820152908252604080516060810182526006850180546001600160a01b03168252600786018054845181870281018701909552808552958501959294919385830193909260009084015b8282101561055e5783829060005260206000200180546104d190613f3e565b80601f01602080910402602001604051908101604052809291908181526020018280546104fd90613f3e565b801561054a5780601f1061051f5761010080835404028352916020019161054a565b820191906000526020600020905b81548152906001019060200180831161052d57829003601f168201915b5050505050815260200190600101906104b2565b505050908252506002919091015460ff161515602091820152908252604080516060810182526009850180546001600160a01b03168252600a86018054845181870281018701909552808552958501959294919385830193909260009084015b8282101561066a5783829060005260206000200180546105dd90613f3e565b80601f016020809104026020016040519081016040528092919081815260200182805461060990613f3e565b80156106565780601f1061062b57610100808354040283529160200191610656565b820191906000526020600020905b81548152906001019060200180831161063957829003601f168201915b5050505050815260200190600101906105be565b5050509082525060029182015460ff9081161515602092830152928452600c850154930192909116908111156106b057634e487b7160e01b600052602160045260246000fd5b60028111156106cf57634e487b7160e01b600052602160045260246000fd5b8152600c820154610100900460ff1615156020820152600d909101546040909101526080810151519091506001600160a01b031633148061071d57506060810151516001600160a01b031633145b80610735575060a0810151516001600160a01b031633145b6107515760405162461bcd60e51b815260040161025590613e41565b8560006004600083815260200190815260200160002060405180610120016040529081600082015481526020016001820154815260200160028201805461079790613f3e565b80601f01602080910402602001604051908101604052809291908181526020018280546107c390613f3e565b80156108105780601f106107e557610100808354040283529160200191610810565b820191906000526020600020905b8154815290600101906020018083116107f357829003601f168201915b5050509183525050604080516060810182526003840180546001600160a01b0316825260048501805484516020828102820181019096528181529585019593949293858401939092919060009084015b8282101561090c57838290600052602060002001805461087f90613f3e565b80601f01602080910402602001604051908101604052809291908181526020018280546108ab90613f3e565b80156108f85780601f106108cd576101008083540402835291602001916108f8565b820191906000526020600020905b8154815290600101906020018083116108db57829003601f168201915b505050505081526020019060010190610860565b505050908252506002919091015460ff161515602091820152908252604080516060810182526006850180546001600160a01b03168252600786018054845181870281018701909552808552958501959294919385830193909260009084015b82821015610a1857838290600052602060002001805461098b90613f3e565b80601f01602080910402602001604051908101604052809291908181526020018280546109b790613f3e565b8015610a045780601f106109d957610100808354040283529160200191610a04565b820191906000526020600020905b8154815290600101906020018083116109e757829003601f168201915b50505050508152602001906001019061096c565b505050908252506002919091015460ff161515602091820152908252604080516060810182526009850180546001600160a01b03168252600a86018054845181870281018701909552808552958501959294919385830193909260009084015b82821015610b24578382906000526020600020018054610a9790613f3e565b80601f0160208091040260200160405190810160405280929190818152602001828054610ac390613f3e565b8015610b105780601f10610ae557610100808354040283529160200191610b10565b820191906000526020600020905b815481529060010190602001808311610af357829003601f168201915b505050505081526020019060010190610a78565b5050509082525060029182015460ff9081161515602092830152928452600c85015493019290911690811115610b6a57634e487b7160e01b600052602160045260246000fd5b6002811115610b8957634e487b7160e01b600052602160045260246000fd5b8152600c820154610100900460ff1615156020820152600d90910154604090910152905060028160c001516002811115610bd357634e487b7160e01b600052602160045260246000fd5b1415610c065760a0810151516001600160a01b03163314610c065760405162461bcd60e51b815260040161025590613d50565b6000610c1189611dfe565b90508015610c23576000975050610e1a565b600089815260046020526040902060068101546001600160a01b0316331415610d4257600581015460ff16610cc05760405162461bcd60e51b815260206004820152603c60248201527f56656e646f72206d75737420617070726f7665207461736b206265666f72652060448201527f796f752063616e20617070726f766520657468207472616e73666572000000006064820152608401610255565b600881015460ff1615610d155760405162461bcd60e51b815260206004820181905260248201527f596f752063616e206e6f7420617070726f76652061207461736b2074776963656044820152606401610255565b60088101805460ff191660011790556003810154610d3d9082906001600160a01b03166133a0565b610dbc565b60038101546001600160a01b0316331415610dbc57600581015460ff1615610dac5760405162461bcd60e51b815260206004820181905260248201527f596f752063616e206e6f7420617070726f76652061207461736b2074776963656044820152606401610255565b60058101805460ff191660011790555b6002600c82015460ff166002811115610de557634e487b7160e01b600052602160045260246000fd5b1415610e1357600b8101805460ff191660011790556003810154610e139082906001600160a01b03166133a0565b6001985050505b505050505050919050565b6000836001548110610e495760405162461bcd60e51b815260040161025590613c94565b6000858152600460205260409020600c01548590610100900460ff1615610e825760405162461bcd60e51b815260040161025590613d0c565b85600060046000838152602001908152602001600020604051806101200160405290816000820154815260200160018201548152602001600282018054610ec890613f3e565b80601f0160208091040260200160405190810160405280929190818152602001828054610ef490613f3e565b8015610f415780601f10610f1657610100808354040283529160200191610f41565b820191906000526020600020905b815481529060010190602001808311610f2457829003601f168201915b5050509183525050604080516060810182526003840180546001600160a01b0316825260048501805484516020828102820181019096528181529585019593949293858401939092919060009084015b8282101561103d578382906000526020600020018054610fb090613f3e565b80601f0160208091040260200160405190810160405280929190818152602001828054610fdc90613f3e565b80156110295780601f10610ffe57610100808354040283529160200191611029565b820191906000526020600020905b81548152906001019060200180831161100c57829003601f168201915b505050505081526020019060010190610f91565b505050908252506002919091015460ff161515602091820152908252604080516060810182526006850180546001600160a01b03168252600786018054845181870281018701909552808552958501959294919385830193909260009084015b828210156111495783829060005260206000200180546110bc90613f3e565b80601f01602080910402602001604051908101604052809291908181526020018280546110e890613f3e565b80156111355780601f1061110a57610100808354040283529160200191611135565b820191906000526020600020905b81548152906001019060200180831161111857829003601f168201915b50505050508152602001906001019061109d565b505050908252506002919091015460ff161515602091820152908252604080516060810182526009850180546001600160a01b03168252600a86018054845181870281018701909552808552958501959294919385830193909260009084015b828210156112555783829060005260206000200180546111c890613f3e565b80601f01602080910402602001604051908101604052809291908181526020018280546111f490613f3e565b80156112415780601f1061121657610100808354040283529160200191611241565b820191906000526020600020905b81548152906001019060200180831161122457829003601f168201915b5050505050815260200190600101906111a9565b5050509082525060029182015460ff9081161515602092830152928452600c8501549301929091169081111561129b57634e487b7160e01b600052602160045260246000fd5b60028111156112ba57634e487b7160e01b600052602160045260246000fd5b8152600c820154610100900460ff1615156020820152600d909101546040909101526080810151519091506001600160a01b031633148061130857506060810151516001600160a01b031633145b80611320575060a0810151516001600160a01b031633145b61133c5760405162461bcd60e51b815260040161025590613e41565b86868080601f0160208091040260200160405190810160405280939291908181526020018383808284376000920191909152505082511515915061139490505760405162461bcd60e51b815260040161025590613dfa565b600061139f8a611dfe565b905080156113b1576000965050611473565b60008a815260046020526040902060068101546001600160a01b03163314156113fc57600781018054600181018255600091825260209091206113f691018b8b613632565b5061146c565b60038101546001600160a01b031633141561143357600481018054600181018255600091825260209091206113f691018b8b613632565b60098101546001600160a01b031633141561146c57600a810180546001810182556000918252602090912061146a91018b8b613632565b505b6001975050505b50505050509392505050565b6114876136b6565b6000600460008481526020019081526020016000206040518061012001604052908160008201548152602001600182015481526020016002820180546114cc90613f3e565b80601f01602080910402602001604051908101604052809291908181526020018280546114f890613f3e565b80156115455780601f1061151a57610100808354040283529160200191611545565b820191906000526020600020905b81548152906001019060200180831161152857829003601f168201915b5050509183525050604080516060810182526003840180546001600160a01b0316825260048501805484516020828102820181019096528181529585019593949293858401939092919060009084015b828210156116415783829060005260206000200180546115b490613f3e565b80601f01602080910402602001604051908101604052809291908181526020018280546115e090613f3e565b801561162d5780601f106116025761010080835404028352916020019161162d565b820191906000526020600020905b81548152906001019060200180831161161057829003601f168201915b505050505081526020019060010190611595565b505050908252506002919091015460ff161515602091820152908252604080516060810182526006850180546001600160a01b03168252600786018054845181870281018701909552808552958501959294919385830193909260009084015b8282101561174d5783829060005260206000200180546116c090613f3e565b80601f01602080910402602001604051908101604052809291908181526020018280546116ec90613f3e565b80156117395780601f1061170e57610100808354040283529160200191611739565b820191906000526020600020905b81548152906001019060200180831161171c57829003601f168201915b5050505050815260200190600101906116a1565b505050908252506002919091015460ff161515602091820152908252604080516060810182526009850180546001600160a01b03168252600a86018054845181870281018701909552808552958501959294919385830193909260009084015b828210156118595783829060005260206000200180546117cc90613f3e565b80601f01602080910402602001604051908101604052809291908181526020018280546117f890613f3e565b80156118455780601f1061181a57610100808354040283529160200191611845565b820191906000526020600020905b81548152906001019060200180831161182857829003601f168201915b5050505050815260200190600101906117ad565b5050509082525060029182015460ff9081161515602092830152928452600c8501549301929091169081111561189f57634e487b7160e01b600052602160045260246000fd5b60028111156118be57634e487b7160e01b600052602160045260246000fd5b8152600c820154610100900460ff1615156020820152600d909101546040909101529392505050565b336000908152600360209081526040808320805482518185028101850190935280835260609493849084015b828210156119e157838290600052602060002090600202016040518060400160405290816000820154815260200160018201805461195090613f3e565b80601f016020809104026020016040519081016040528092919081815260200182805461197c90613f3e565b80156119c95780601f1061199e576101008083540402835291602001916119c9565b820191906000526020600020905b8154815290600101906020018083116119ac57829003601f168201915b50505050508152505081526020019060010190611913565b509295945050505050565b6000816001548110611a105760405162461bcd60e51b815260040161025590613c94565b6000838152600460205260409020600c01548390610100900460ff1615611a495760405162461bcd60e51b815260040161025590613d0c565b6000611a5485611dfe565b90508015611a66576000935050611df7565b600085815260046020526040902060098101546001600160a01b031615611aec5760405162461bcd60e51b815260206004820152603460248201527f412074686972642070617274792068617320616c7265616479206265656e2061604482015273737369676e656420746f2074686973207461736b60601b6064820152608401610255565b60068101546001600160a01b03163314801590611b16575060038101546001600160a01b03163314155b611b805760405162461bcd60e51b815260206004820152603560248201527f54686972642070617274792063616e206e6f7420616c726561647920626520636044820152746f6e6e656374656420746f2074686973207461736b60581b6064820152608401610255565b6002600c82015460ff166002811115611ba957634e487b7160e01b600052602160045260246000fd5b14611c265760405162461bcd60e51b815260206004820152604160248201527f43616e6e6f742061737369676e206120746869726420706172747920746f207460448201527f686973207461736b20756e74696c20696e7465726e616c6c79206465636964656064820152601960fa1b608482015260a401610255565b33301415611c9c5760405162461bcd60e51b815260206004820152603860248201527f5468697320736d61727420636f6e74726163742063616e206e6f74206265207460448201527f6865207468697264207061727479206f662061207461736b00000000000000006064820152608401610255565b611ca4613714565b604080518082019091526000815260606020820152338083526009840180546001600160a01b03191690911781556020808401518051859392611cee92600a890192910190613740565b50604091909101516002918201805460ff19169115159190911790558354825283018054611d1b90613f3e565b80601f0160208091040260200160405190810160405280929190818152602001828054611d4790613f3e565b8015611d945780601f10611d6957610100808354040283529160200191611d94565b820191906000526020600020905b815481529060010190602001808311611d7757829003601f168201915b5050505050602082810191825233600090815260038252604081208054600180820183559183529183902085516002909302019182559251805185949293611de0938501920190613799565b50508354611dee91506134b2565b60019650505050505b5050919050565b60008181526004602052604081206005810154829060ff16158015611e4a57506002600c83015460ff166002811115611e4757634e487b7160e01b600052602160045260246000fd5b14155b15611e77574282600d015411611e77576006820154611e739083906001600160a01b03166133a0565b5060015b9392505050565b6000826001548110611ea25760405162461bcd60e51b815260040161025590613c94565b8260008111611ec35760405162461bcd60e51b815260040161025590613ccb565b6000858152600460205260409020600c01548590610100900460ff1615611efc5760405162461bcd60e51b815260040161025590613d0c565b6000611f0787611dfe565b90508015611f19576000945050611fbc565b600087815260046020526040902060068101546001600160a01b03163314611fa05760405162461bcd60e51b815260206004820152603460248201527f4f6e6c792074686520636c69656e74206f662074686973207461736b206d6179604482015273206164642065787069726174696f6e2074696d6560601b6064820152608401610255565b8681600d0154611fb09190613ed0565b600d9091015550600193505b50505092915050565b60606002805480602002602001604051908101604052809291908181526020016000905b828210156120b757838290600052602060002090600202016040518060400160405290816000820154815260200160018201805461202690613f3e565b80601f016020809104026020016040519081016040528092919081815260200182805461205290613f3e565b801561209f5780601f106120745761010080835404028352916020019161209f565b820191906000526020600020905b81548152906001019060200180831161208257829003601f168201915b50505050508152505081526020019060010190611fe9565b50505050905090565b60008160015481106120e45760405162461bcd60e51b815260040161025590613c94565b600034116121045760405162461bcd60e51b815260040161025590613db7565b6000838152600460205260409020600c01548390610100900460ff161561213d5760405162461bcd60e51b815260040161025590613d0c565b600061214885611dfe565b905080156121875760405133903480156108fc02916000818181858888f1935050505015801561217c573d6000803e3d6000fd5b506000935050611df7565b600085815260046020526040902060068101546001600160a01b031633146122045760405162461bcd60e51b815260206004820152602a60248201527f4f6e6c792074686520636c69656e74206f662074686973207461736b206d6179604482015269206164642066756e647360b01b6064820152608401610255565b3481600101546122149190613ed0565b60019182015595945050505050565b60008160015481106122475760405162461bcd60e51b815260040161025590613c94565b6000838152600460205260409020600c01548390610100900460ff16156122805760405162461bcd60e51b815260040161025590613d0c565b836000600460008381526020019081526020016000206040518061012001604052908160008201548152602001600182015481526020016002820180546122c690613f3e565b80601f01602080910402602001604051908101604052809291908181526020018280546122f290613f3e565b801561233f5780601f106123145761010080835404028352916020019161233f565b820191906000526020600020905b81548152906001019060200180831161232257829003601f168201915b5050509183525050604080516060810182526003840180546001600160a01b0316825260048501805484516020828102820181019096528181529585019593949293858401939092919060009084015b8282101561243b5783829060005260206000200180546123ae90613f3e565b80601f01602080910402602001604051908101604052809291908181526020018280546123da90613f3e565b80156124275780601f106123fc57610100808354040283529160200191612427565b820191906000526020600020905b81548152906001019060200180831161240a57829003601f168201915b50505050508152602001906001019061238f565b505050908252506002919091015460ff161515602091820152908252604080516060810182526006850180546001600160a01b03168252600786018054845181870281018701909552808552958501959294919385830193909260009084015b828210156125475783829060005260206000200180546124ba90613f3e565b80601f01602080910402602001604051908101604052809291908181526020018280546124e690613f3e565b80156125335780601f1061250857610100808354040283529160200191612533565b820191906000526020600020905b81548152906001019060200180831161251657829003601f168201915b50505050508152602001906001019061249b565b505050908252506002919091015460ff161515602091820152908252604080516060810182526009850180546001600160a01b03168252600a86018054845181870281018701909552808552958501959294919385830193909260009084015b828210156126535783829060005260206000200180546125c690613f3e565b80601f01602080910402602001604051908101604052809291908181526020018280546125f290613f3e565b801561263f5780601f106126145761010080835404028352916020019161263f565b820191906000526020600020905b81548152906001019060200180831161262257829003601f168201915b5050505050815260200190600101906125a7565b5050509082525060029182015460ff9081161515602092830152928452600c8501549301929091169081111561269957634e487b7160e01b600052602160045260246000fd5b60028111156126b857634e487b7160e01b600052602160045260246000fd5b8152600c820154610100900460ff1615156020820152600d909101546040909101526080810151519091506001600160a01b031633148061270657506060810151516001600160a01b031633145b8061271e575060a0810151516001600160a01b031633145b61273a5760405162461bcd60e51b815260040161025590613e41565b8560006004600083815260200190815260200160002060405180610120016040529081600082015481526020016001820154815260200160028201805461278090613f3e565b80601f01602080910402602001604051908101604052809291908181526020018280546127ac90613f3e565b80156127f95780601f106127ce576101008083540402835291602001916127f9565b820191906000526020600020905b8154815290600101906020018083116127dc57829003601f168201915b5050509183525050604080516060810182526003840180546001600160a01b0316825260048501805484516020828102820181019096528181529585019593949293858401939092919060009084015b828210156128f557838290600052602060002001805461286890613f3e565b80601f016020809104026020016040519081016040528092919081815260200182805461289490613f3e565b80156128e15780601f106128b6576101008083540402835291602001916128e1565b820191906000526020600020905b8154815290600101906020018083116128c457829003601f168201915b505050505081526020019060010190612849565b505050908252506002919091015460ff161515602091820152908252604080516060810182526006850180546001600160a01b03168252600786018054845181870281018701909552808552958501959294919385830193909260009084015b82821015612a0157838290600052602060002001805461297490613f3e565b80601f01602080910402602001604051908101604052809291908181526020018280546129a090613f3e565b80156129ed5780601f106129c2576101008083540402835291602001916129ed565b820191906000526020600020905b8154815290600101906020018083116129d057829003601f168201915b505050505081526020019060010190612955565b505050908252506002919091015460ff161515602091820152908252604080516060810182526009850180546001600160a01b03168252600a86018054845181870281018701909552808552958501959294919385830193909260009084015b82821015612b0d578382906000526020600020018054612a8090613f3e565b80601f0160208091040260200160405190810160405280929190818152602001828054612aac90613f3e565b8015612af95780601f10612ace57610100808354040283529160200191612af9565b820191906000526020600020905b815481529060010190602001808311612adc57829003601f168201915b505050505081526020019060010190612a61565b5050509082525060029182015460ff9081161515602092830152928452600c85015493019290911690811115612b5357634e487b7160e01b600052602160045260246000fd5b6002811115612b7257634e487b7160e01b600052602160045260246000fd5b8152600c820154610100900460ff1615156020820152600d90910154604090910152905060028160c001516002811115612bbc57634e487b7160e01b600052602160045260246000fd5b1415612bef5760a0810151516001600160a01b03163314612bef5760405162461bcd60e51b815260040161025590613d50565b6000612bfa89611dfe565b90508015612c0c576000975050610e1a565b600089815260046020526040902060068101546001600160a01b0316331415612cb557600581015460ff16612cb55760405162461bcd60e51b815260206004820152604360248201527f56656e646f72206d75737420617070726f7665207461736b206f6e207468656960448201527f7220656e64206265666f726520796f752063616e206f70656e2061206469737060648201526275746560e81b608482015260a401610255565b6000600c82015460ff166002811115612cde57634e487b7160e01b600052602160045260246000fd5b1415612d585760068101546001600160a01b0316331415612d255760088101805460ff1990811690915560058201805482169055600c820180549091166001179055610e13565b60038101546001600160a01b0316331415612d53576006810154612d539082906001600160a01b03166133a0565b610e13565b6001600c82015460ff166002811115612d8157634e487b7160e01b600052602160045260246000fd5b1415612ee45760068101546001600160a01b0316331415612d255760088101805460ff1990811690915560058201805482169055600c8201805460029216821790556040805180820190915260606020820152825481529082018054612de690613f3e565b80601f0160208091040260200160405190810160405280929190818152602001828054612e1290613f3e565b8015612e5f5780601f10612e3457610100808354040283529160200191612e5f565b820191906000526020600020905b815481529060010190602001808311612e4257829003601f168201915b50505050506020828101918252600280546001810182556000829052845191027f405787fa12a823e0f2b7631cc41b3ba8828b3321ca811111fa75cd3aa3bb5ace81019182559251805185949293612edb937f405787fa12a823e0f2b7631cc41b3ba8828b3321ca811111fa75cd3aa3bb5acf01920190613799565b50505050610e13565b6002600c82015460ff166002811115612f0d57634e487b7160e01b600052602160045260246000fd5b1415610e13576006810154610e139082906001600160a01b03166133a0565b60003411612f4c5760405162461bcd60e51b815260040161025590613db7565b816000815111612f6e5760405162461bcd60e51b815260040161025590613dfa565b8160008111612f8f5760405162461bcd60e51b815260040161025590613ccb565b6001600160a01b038516331415612ffd5760405162461bcd60e51b815260206004820152602c60248201527f56656e646f72202620436c69656e74206164647265737365732073686f756c6460448201526b08189948191a5cdd1a5b98dd60a21b6064820152608401610255565b6001600160a01b03851630141561306b5760405162461bcd60e51b815260206004820152602c60248201527f5468697320736d61727420636f6e74726163742063616e206e6f74206265206160448201526b103a30b9b5903b32b73237b960a11b6064820152608401610255565b6130736136b6565b61307b613714565b613083613714565b6001600160a01b03881682523381526001548352606083018290526080830181905234602084015260408301879052600060c08401526130c38642613ed0565b6101008401526040805180820182526000808252606060208084019182528751845284880180519092526001805484526004825294909220875181558288015194810194909455518051929387939092613124926002850192910190613799565b50606082015180516003830180546001600160a01b0319166001600160a01b0390921691909117815560208083015180516131659260048701920190613740565b50604091909101516002909101805460ff1916911515919091179055608082015180516006830180546001600160a01b0319166001600160a01b0390921691909117815560208083015180516131c19260078701920190613740565b50604091909101516002909101805460ff191691151591909117905560a082015180516009830180546001600160a01b0319166001600160a01b03909216919091178155602080830151805161321d92600a8701920190613740565b50604091909101516002918201805491151560ff1992831617905560c0840151600c84018054919390929190911690600190849081111561326e57634e487b7160e01b600052602160045260246000fd5b021790555060e0820151600c8201805461ff001916610100921515830217905590910151600d909101556001600160a01b038916600090815260036020908152604082208054600181810183559184529282902084516002909402019283558382015180518594936132e4938501920190613799565b5050336000908152600360209081526040822080546001818101835591845292829020855160029094020192835584820151805186955061332d93928501929190910190613799565b50508451600154600081815260046020526040908190205490517f29f3694a7f1bf1237139ba49f698a8a03b08ec5880b314324d2c8b71c76223f19450613378939289921490613ea5565b60405180910390a16001805490600061339083613f79565b9190505550505050505050505050565b60098201546001600160a01b03166133f15760018201546040516001600160a01b0383169180156108fc02916000818181858888f193505050501580156133eb573d6000803e3d6000fd5b5061349f565b6000606460005484600101546134079190613f08565b6134119190613ee8565b905060008184600101546134259190613f27565b6040519091506001600160a01b0384169082156108fc029083906000818181858888f1935050505015801561345e573d6000803e3d6000fd5b5060098401546040516001600160a01b039091169083156108fc029084906000818181858888f1935050505015801561349b573d6000803e3d6000fd5b5050505b50600c01805461ff001916610100179055565b6000805b6002548110156135145782600282815481106134e257634e487b7160e01b600052603260045260246000fd5b906000526020600020906002020160000154141561350257809150613514565b8061350c81613f79565b9150506134b6565b50805b60025481101561362d5760025461353090600190613f27565b81141561358557600280548061355657634e487b7160e01b600052603160045260246000fd5b6000828152602081206002600019909301928302018181559061357c600183018261380d565b50509055505050565b6002613592826001613ed0565b815481106135b057634e487b7160e01b600052603260045260246000fd5b9060005260206000209060020201600282815481106135df57634e487b7160e01b600052603260045260246000fd5b906000526020600020906002020160008201548160000155600182018160010190805461360b90613f3e565b61361692919061384a565b50905050808061362590613f79565b915050613517565b505050565b82805461363e90613f3e565b90600052602060002090601f01602090048101928261366057600085556136a6565b82601f106136795782800160ff198235161785556136a6565b828001600101855582156136a6579182015b828111156136a657823582559160200191906001019061368b565b506136b29291506138c5565b5090565b6040518061012001604052806000815260200160008152602001606081526020016136df613714565b81526020016136ec613714565b81526020016136f9613714565b81526020016000815260006020820181905260409091015290565b604051806060016040528060006001600160a01b03168152602001606081526020016000151581525090565b82805482825590600052602060002090810192821561378d579160200282015b8281111561378d578251805161377d918491602090910190613799565b5091602001919060010190613760565b506136b29291506138da565b8280546137a590613f3e565b90600052602060002090601f0160209004810192826137c757600085556136a6565b82601f106137e057805160ff19168380011785556136a6565b828001600101855582156136a6579182015b828111156136a65782518255916020019190600101906137f2565b50805461381990613f3e565b6000825580601f10613829575050565b601f01602090049060005260206000209081019061384791906138c5565b50565b82805461385690613f3e565b90600052602060002090601f01602090048101928261387857600085556136a6565b82601f1061388957805485556136a6565b828001600101855582156136a657600052602060002091601f016020900482015b828111156136a65782548255916001019190600101906138aa565b5b808211156136b257600081556001016138c6565b808211156136b25760006138ee828261380d565b506001016138da565b60008060006060848603121561390b578283fd5b83356001600160a01b0381168114613921578384fd5b9250602084013567ffffffffffffffff8082111561393d578384fd5b818601915086601f830112613950578384fd5b81358181111561396257613962613faa565b604051601f8201601f19908116603f0116810190838211818310171561398a5761398a613faa565b816040528281528960208487010111156139a2578687fd5b82602086016020830137918201602001959095529497949650505050604092909201359150565b6000602082840312156139da578081fd5b5035919050565b6000806000604084860312156139f5578283fd5b83359250602084013567ffffffffffffffff80821115613a13578384fd5b818601915086601f830112613a26578384fd5b813581811115613a34578485fd5b876020828501011115613a45578485fd5b6020830194508093505050509250925092565b60008060408385031215613a6a578182fd5b50508035926020909101359150565b60038110613a9757634e487b7160e01b600052602160045260246000fd5b9052565b60008151808452815b81811015613ac057602081850181015186830182015201613aa4565b81811115613ad15782602083870101525b50601f01601f19169290920160200192915050565b600061012082518452602083015160208501526040830151816040860152613b1082860182613a9b565b91505060608301518482036060860152613b2a8282613b9c565b91505060808301518482036080860152613b448282613b9c565b91505060a083015184820360a0860152613b5e8282613b9c565b91505060c0830151613b7360c0860182613a79565b5060e0830151613b8760e086018215159052565b50610100928301519390920192909252919050565b60006060830160018060a01b03835116845260208084015160608287015282815180855260808801915060808160051b89010194508383019250855b81811015613c0657607f19898703018352613bf4868551613a9b565b95509284019291840191600101613bd8565b50505050506040830151151560408501528091505092915050565b60006020808301818452808551808352604092508286019150828160051b870101848801865b83811015613c8657888303603f19018552815180518452870151878401879052613c7387850182613a9b565b9588019593505090860190600101613c47565b509098975050505050505050565b60208082526019908201527f4d757374207061737320612076616c6964207461736b20494400000000000000604082015260600190565b60208082526021908201527f4d757374207061737320612076616c69642065787069726174696f6e206461746040820152606560f81b606082015260800190565b60208082526024908201527f54686973207461736b2068617320616c7265616479206265656e20636f6d706c604082015263195d195960e21b606082015260800190565b60208082526041908201527f4f6e6c7920746865207468697264207061727479206d6179206d616b6520612060408201527f6465636973696f6e2061742074686973207374616765206f66206469737075746060820152606560f81b608082015260a00190565b60208082526023908201527f4d7573742073656e6420657468657220746f20657865637574652066756e637460408201526234b7b760e91b606082015260800190565b60208082526027908201527f537472696e6720617267756d656e74206d757374206265206f662076616c6964604082015266040d8cadccee8d60cb1b606082015260800190565b60208082526031908201527f43616e206e6f7420696e74657261637420776974682061207461736b20796f7560408201527013b932903737ba1030903830b93a1037b360791b606082015260800190565b602081526000611e776020830184613ae6565b838152606060208201526000613ebe6060830185613ae6565b90508215156040830152949350505050565b60008219821115613ee357613ee3613f94565b500190565b600082613f0357634e487b7160e01b81526012600452602481fd5b500490565b6000816000190483118215151615613f2257613f22613f94565b500290565b600082821015613f3957613f39613f94565b500390565b600181811c90821680613f5257607f821691505b60208210811415613f7357634e487b7160e01b600052602260045260246000fd5b50919050565b6000600019821415613f8d57613f8d613f94565b5060010190565b634e487b7160e01b600052601160045260246000fd5b634e487b7160e01b600052604160045260246000fdfea264697066735822122002ef345f6f128bd9c5886fae888766f4c188ab5e24c4ab80048b8b13f7c61f2764736f6c63430008040033",
  "linkReferences": {},
  "deployedLinkReferences": {}
}