{
  "_format": "hh-sol-artifact-1",
  "contractName": "TaskAgreement",
  "sourceName": "contracts/TaskAgreement.sol",
  "abi": [
    {
      "anonymous": false,
      "inputs": [
        {
          "indexed": false,
          "internalType": "uint256",
          "name": "id",
          "type": "uint256"
        },
        {
          "components": [
            {
              "internalType": "uint256",
              "name": "id",
              "type": "uint256"
            },
            {
              "internalType": "uint256",
              "name": "price",
              "type": "uint256"
            },
            {
              "internalType": "string",
              "name": "description",
              "type": "string"
            },
            {
              "components": [
                {
                  "internalType": "address payable",
                  "name": "to",
                  "type": "address"
                },
                {
                  "internalType": "string[]",
                  "name": "evidence",
                  "type": "string[]"
                },
                {
                  "internalType": "bool",
                  "name": "approved",
                  "type": "bool"
                }
              ],
              "internalType": "struct TaskAgreement.User",
              "name": "provider",
              "type": "tuple"
            },
            {
              "components": [
                {
                  "internalType": "address payable",
                  "name": "to",
                  "type": "address"
                },
                {
                  "internalType": "string[]",
                  "name": "evidence",
                  "type": "string[]"
                },
                {
                  "internalType": "bool",
                  "name": "approved",
                  "type": "bool"
                }
              ],
              "internalType": "struct TaskAgreement.User",
              "name": "consumer",
              "type": "tuple"
            },
            {
              "components": [
                {
                  "internalType": "address payable",
                  "name": "to",
                  "type": "address"
                },
                {
                  "internalType": "string[]",
                  "name": "evidence",
                  "type": "string[]"
                },
                {
                  "internalType": "bool",
                  "name": "approved",
                  "type": "bool"
                }
              ],
              "internalType": "struct TaskAgreement.User",
              "name": "thirdParty",
              "type": "tuple"
            },
            {
              "internalType": "enum TaskAgreement.DisputeStage",
              "name": "dispute",
              "type": "uint8"
            },
            {
              "internalType": "bool",
              "name": "completed",
              "type": "bool"
            },
            {
              "internalType": "uint256",
              "name": "expiration",
              "type": "uint256"
            }
          ],
          "indexed": false,
          "internalType": "struct TaskAgreement.Task",
          "name": "task",
          "type": "tuple"
        },
        {
          "indexed": false,
          "internalType": "bool",
          "name": "success",
          "type": "bool"
        }
      ],
      "name": "TaskCreated",
      "type": "event"
    },
    {
      "inputs": [
        {
          "internalType": "uint256",
          "name": "taskId",
          "type": "uint256"
        },
        {
          "internalType": "string",
          "name": "evidence",
          "type": "string"
        }
      ],
      "name": "addEvidence",
      "outputs": [],
      "stateMutability": "nonpayable",
      "type": "function"
    },
    {
      "inputs": [
        {
          "internalType": "uint256",
          "name": "taskId",
          "type": "uint256"
        }
      ],
      "name": "addFunds",
      "outputs": [],
      "stateMutability": "payable",
      "type": "function"
    },
    {
      "inputs": [
        {
          "internalType": "uint256",
          "name": "taskId",
          "type": "uint256"
        },
        {
          "internalType": "uint256",
          "name": "time",
          "type": "uint256"
        }
      ],
      "name": "addTime",
      "outputs": [],
      "stateMutability": "nonpayable",
      "type": "function"
    },
    {
      "inputs": [
        {
          "internalType": "uint256",
          "name": "taskId",
          "type": "uint256"
        }
      ],
      "name": "approveTask",
      "outputs": [],
      "stateMutability": "nonpayable",
      "type": "function"
    },
    {
      "inputs": [
        {
          "internalType": "uint256",
          "name": "taskId",
          "type": "uint256"
        }
      ],
      "name": "assignThirdParty",
      "outputs": [],
      "stateMutability": "nonpayable",
      "type": "function"
    },
    {
      "inputs": [],
      "name": "commission",
      "outputs": [
        {
          "internalType": "uint256",
          "name": "",
          "type": "uint256"
        }
      ],
      "stateMutability": "view",
      "type": "function"
    },
    {
      "inputs": [
        {
          "internalType": "address payable",
          "name": "providerAddress",
          "type": "address"
        },
        {
          "internalType": "string",
          "name": "description",
          "type": "string"
        },
        {
          "internalType": "uint256",
          "name": "expiresIn",
          "type": "uint256"
        }
      ],
      "name": "createTask",
      "outputs": [],
      "stateMutability": "payable",
      "type": "function"
    },
    {
      "inputs": [
        {
          "internalType": "uint256",
          "name": "taskId",
          "type": "uint256"
        }
      ],
      "name": "disapproveTask",
      "outputs": [],
      "stateMutability": "nonpayable",
      "type": "function"
    },
    {
      "inputs": [
        {
          "internalType": "uint256",
          "name": "taskId",
          "type": "uint256"
        }
      ],
      "name": "expireTask",
      "outputs": [],
      "stateMutability": "nonpayable",
      "type": "function"
    },
    {
      "inputs": [],
      "name": "getDisputedTasks",
      "outputs": [
        {
          "internalType": "uint256[]",
          "name": "",
          "type": "uint256[]"
        }
      ],
      "stateMutability": "view",
      "type": "function"
    },
    {
      "inputs": [
        {
          "internalType": "uint256",
          "name": "taskId",
          "type": "uint256"
        }
      ],
      "name": "getTask",
      "outputs": [
        {
          "components": [
            {
              "internalType": "uint256",
              "name": "id",
              "type": "uint256"
            },
            {
              "internalType": "uint256",
              "name": "price",
              "type": "uint256"
            },
            {
              "internalType": "string",
              "name": "description",
              "type": "string"
            },
            {
              "components": [
                {
                  "internalType": "address payable",
                  "name": "to",
                  "type": "address"
                },
                {
                  "internalType": "string[]",
                  "name": "evidence",
                  "type": "string[]"
                },
                {
                  "internalType": "bool",
                  "name": "approved",
                  "type": "bool"
                }
              ],
              "internalType": "struct TaskAgreement.User",
              "name": "provider",
              "type": "tuple"
            },
            {
              "components": [
                {
                  "internalType": "address payable",
                  "name": "to",
                  "type": "address"
                },
                {
                  "internalType": "string[]",
                  "name": "evidence",
                  "type": "string[]"
                },
                {
                  "internalType": "bool",
                  "name": "approved",
                  "type": "bool"
                }
              ],
              "internalType": "struct TaskAgreement.User",
              "name": "consumer",
              "type": "tuple"
            },
            {
              "components": [
                {
                  "internalType": "address payable",
                  "name": "to",
                  "type": "address"
                },
                {
                  "internalType": "string[]",
                  "name": "evidence",
                  "type": "string[]"
                },
                {
                  "internalType": "bool",
                  "name": "approved",
                  "type": "bool"
                }
              ],
              "internalType": "struct TaskAgreement.User",
              "name": "thirdParty",
              "type": "tuple"
            },
            {
              "internalType": "enum TaskAgreement.DisputeStage",
              "name": "dispute",
              "type": "uint8"
            },
            {
              "internalType": "bool",
              "name": "completed",
              "type": "bool"
            },
            {
              "internalType": "uint256",
              "name": "expiration",
              "type": "uint256"
            }
          ],
          "internalType": "struct TaskAgreement.Task",
          "name": "",
          "type": "tuple"
        }
      ],
      "stateMutability": "view",
      "type": "function"
    },
    {
      "inputs": [
        {
          "internalType": "address",
          "name": "userAddress",
          "type": "address"
        }
      ],
      "name": "getUserTasks",
      "outputs": [
        {
          "internalType": "uint256[]",
          "name": "",
          "type": "uint256[]"
        }
      ],
      "stateMutability": "view",
      "type": "function"
    }
  ],
  "bytecode": "0x6080604052600460005534801561001557600080fd5b50615e7880620000266000396000f3fe6080604052600436106100a75760003560e01c806395d576601161006457806395d57660146101b6578063b0227721146101f3578063be9997051461021e578063c2aba82c1461023a578063e148919114610263578063fd24bf4b1461028e576100a7565b80630a07fae6146100ac5780631c3665eb146100d55780631d65e77e146100fe578063423bfe491461013b57806362ecc47a14610164578063791581c61461018d575b600080fd5b3480156100b857600080fd5b506100d360048036038101906100ce9190614cac565b6102aa565b005b3480156100e157600080fd5b506100fc60048036038101906100f79190614cd5565b61138a565b005b34801561010a57600080fd5b5061012560048036038101906101209190614cac565b611d51565b6040516101329190615434565b60405180910390f35b34801561014757600080fd5b50610162600480360381019061015d9190614cac565b6122f1565b005b34801561017057600080fd5b5061018b60048036038101906101869190614cac565b6126dc565b005b34801561019957600080fd5b506101b460048036038101906101af9190614d2d565b6127dd565b005b3480156101c257600080fd5b506101dd60048036038101906101d89190614c1c565b612931565b6040516101ea9190615232565b60405180910390f35b3480156101ff57600080fd5b506102086129ce565b6040516102159190615232565b60405180910390f35b61023860048036038101906102339190614cac565b612a26565b005b34801561024657600080fd5b50610261600480360381019061025c9190614cac565b612b80565b005b34801561026f57600080fd5b50610278613f13565b6040516102859190615456565b60405180910390f35b6102a860048036038101906102a39190614c45565b613f19565b005b8060015481106102ef576040517f08c379a00000000000000000000000000000000000000000000000000000000081526004016102e690615254565b60405180910390fd5b8160046000828152602001908152602001600020600c0160019054906101000a900460ff1615610354576040517f08c379a000000000000000000000000000000000000000000000000000000000815260040161034b906152f4565b60405180910390fd5b8260006004600083815260200190815260200160002060405180610120016040529081600082015481526020016001820154815260200160028201805461039a9061577a565b80601f01602080910402602001604051908101604052809291908181526020018280546103c69061577a565b80156104135780601f106103e857610100808354040283529160200191610413565b820191906000526020600020905b8154815290600101906020018083116103f657829003601f168201915b50505050508152602001600382016040518060600160405290816000820160009054906101000a900473ffffffffffffffffffffffffffffffffffffffff1673ffffffffffffffffffffffffffffffffffffffff1673ffffffffffffffffffffffffffffffffffffffff16815260200160018201805480602002602001604051908101604052809291908181526020016000905b828210156105535783829060005260206000200180546104c69061577a565b80601f01602080910402602001604051908101604052809291908181526020018280546104f29061577a565b801561053f5780601f106105145761010080835404028352916020019161053f565b820191906000526020600020905b81548152906001019060200180831161052257829003601f168201915b5050505050815260200190600101906104a7565b5050505081526020016002820160009054906101000a900460ff1615151515815250508152602001600682016040518060600160405290816000820160009054906101000a900473ffffffffffffffffffffffffffffffffffffffff1673ffffffffffffffffffffffffffffffffffffffff1673ffffffffffffffffffffffffffffffffffffffff16815260200160018201805480602002602001604051908101604052809291908181526020016000905b828210156106b15783829060005260206000200180546106249061577a565b80601f01602080910402602001604051908101604052809291908181526020018280546106509061577a565b801561069d5780601f106106725761010080835404028352916020019161069d565b820191906000526020600020905b81548152906001019060200180831161068057829003601f168201915b505050505081526020019060010190610605565b5050505081526020016002820160009054906101000a900460ff1615151515815250508152602001600982016040518060600160405290816000820160009054906101000a900473ffffffffffffffffffffffffffffffffffffffff1673ffffffffffffffffffffffffffffffffffffffff1673ffffffffffffffffffffffffffffffffffffffff16815260200160018201805480602002602001604051908101604052809291908181526020016000905b8282101561080f5783829060005260206000200180546107829061577a565b80601f01602080910402602001604051908101604052809291908181526020018280546107ae9061577a565b80156107fb5780601f106107d0576101008083540402835291602001916107fb565b820191906000526020600020905b8154815290600101906020018083116107de57829003601f168201915b505050505081526020019060010190610763565b5050505081526020016002820160009054906101000a900460ff1615151515815250508152602001600c820160009054906101000a900460ff166002811115610881577f4e487b7100000000000000000000000000000000000000000000000000000000600052602160045260246000fd5b60028111156108b9577f4e487b7100000000000000000000000000000000000000000000000000000000600052602160045260246000fd5b8152602001600c820160019054906101000a900460ff16151515158152602001600d82015481525050905080608001516000015173ffffffffffffffffffffffffffffffffffffffff163373ffffffffffffffffffffffffffffffffffffffff161480610959575080606001516000015173ffffffffffffffffffffffffffffffffffffffff163373ffffffffffffffffffffffffffffffffffffffff16145b8061099757508060a001516000015173ffffffffffffffffffffffffffffffffffffffff163373ffffffffffffffffffffffffffffffffffffffff16145b6109d6576040517f08c379a00000000000000000000000000000000000000000000000000000000081526004016109cd90615414565b60405180910390fd5b84600060046000838152602001908152602001600020604051806101200160405290816000820154815260200160018201548152602001600282018054610a1c9061577a565b80601f0160208091040260200160405190810160405280929190818152602001828054610a489061577a565b8015610a955780601f10610a6a57610100808354040283529160200191610a95565b820191906000526020600020905b815481529060010190602001808311610a7857829003601f168201915b50505050508152602001600382016040518060600160405290816000820160009054906101000a900473ffffffffffffffffffffffffffffffffffffffff1673ffffffffffffffffffffffffffffffffffffffff1673ffffffffffffffffffffffffffffffffffffffff16815260200160018201805480602002602001604051908101604052809291908181526020016000905b82821015610bd5578382906000526020600020018054610b489061577a565b80601f0160208091040260200160405190810160405280929190818152602001828054610b749061577a565b8015610bc15780601f10610b9657610100808354040283529160200191610bc1565b820191906000526020600020905b815481529060010190602001808311610ba457829003601f168201915b505050505081526020019060010190610b29565b5050505081526020016002820160009054906101000a900460ff1615151515815250508152602001600682016040518060600160405290816000820160009054906101000a900473ffffffffffffffffffffffffffffffffffffffff1673ffffffffffffffffffffffffffffffffffffffff1673ffffffffffffffffffffffffffffffffffffffff16815260200160018201805480602002602001604051908101604052809291908181526020016000905b82821015610d33578382906000526020600020018054610ca69061577a565b80601f0160208091040260200160405190810160405280929190818152602001828054610cd29061577a565b8015610d1f5780601f10610cf457610100808354040283529160200191610d1f565b820191906000526020600020905b815481529060010190602001808311610d0257829003601f168201915b505050505081526020019060010190610c87565b5050505081526020016002820160009054906101000a900460ff1615151515815250508152602001600982016040518060600160405290816000820160009054906101000a900473ffffffffffffffffffffffffffffffffffffffff1673ffffffffffffffffffffffffffffffffffffffff1673ffffffffffffffffffffffffffffffffffffffff16815260200160018201805480602002602001604051908101604052809291908181526020016000905b82821015610e91578382906000526020600020018054610e049061577a565b80601f0160208091040260200160405190810160405280929190818152602001828054610e309061577a565b8015610e7d5780601f10610e5257610100808354040283529160200191610e7d565b820191906000526020600020905b815481529060010190602001808311610e6057829003601f168201915b505050505081526020019060010190610de5565b5050505081526020016002820160009054906101000a900460ff1615151515815250508152602001600c820160009054906101000a900460ff166002811115610f03577f4e487b7100000000000000000000000000000000000000000000000000000000600052602160045260246000fd5b6002811115610f3b577f4e487b7100000000000000000000000000000000000000000000000000000000600052602160045260246000fd5b8152602001600c820160019054906101000a900460ff16151515158152602001600d820154815250509050600280811115610f9f577f4e487b7100000000000000000000000000000000000000000000000000000000600052602160045260246000fd5b8160c001516002811115610fdc577f4e487b7100000000000000000000000000000000000000000000000000000000600052602160045260246000fd5b1415611059578060a001516000015173ffffffffffffffffffffffffffffffffffffffff163373ffffffffffffffffffffffffffffffffffffffff1614611058576040517f08c379a000000000000000000000000000000000000000000000000000000000815260040161104f90615314565b60405180910390fd5b5b611062876126dc565b60006004600089815260200190815260200160002090508060060160000160009054906101000a900473ffffffffffffffffffffffffffffffffffffffff1673ffffffffffffffffffffffffffffffffffffffff163373ffffffffffffffffffffffffffffffffffffffff1614156111d3578060030160020160009054906101000a900460ff16611128576040517f08c379a000000000000000000000000000000000000000000000000000000000815260040161111f90615374565b60405180910390fd5b8060060160020160009054906101000a900460ff161561117d576040517f08c379a000000000000000000000000000000000000000000000000000000000815260040161117490615294565b60405180910390fd5b60018160060160020160006101000a81548160ff0219169083151502179055506111ce818260030160000160009054906101000a900473ffffffffffffffffffffffffffffffffffffffff166144f8565b6112a5565b8060030160000160009054906101000a900473ffffffffffffffffffffffffffffffffffffffff1673ffffffffffffffffffffffffffffffffffffffff163373ffffffffffffffffffffffffffffffffffffffff1614156112a4578060030160020160009054906101000a900460ff1615611283576040517f08c379a000000000000000000000000000000000000000000000000000000000815260040161127a90615294565b60405180910390fd5b60018160030160020160006101000a81548160ff0219169083151502179055505b5b6002808111156112de577f4e487b7100000000000000000000000000000000000000000000000000000000600052602160045260246000fd5b81600c0160009054906101000a900460ff166002811115611328577f4e487b7100000000000000000000000000000000000000000000000000000000600052602160045260246000fd5b14156113805760018160090160020160006101000a81548160ff02191690831515021790555061137f818260030160000160009054906101000a900473ffffffffffffffffffffffffffffffffffffffff166144f8565b5b5050505050505050565b8260015481106113cf576040517f08c379a00000000000000000000000000000000000000000000000000000000081526004016113c690615254565b60405180910390fd5b8360046000828152602001908152602001600020600c0160019054906101000a900460ff1615611434576040517f08c379a000000000000000000000000000000000000000000000000000000000815260040161142b906152f4565b60405180910390fd5b8460006004600083815260200190815260200160002060405180610120016040529081600082015481526020016001820154815260200160028201805461147a9061577a565b80601f01602080910402602001604051908101604052809291908181526020018280546114a69061577a565b80156114f35780601f106114c8576101008083540402835291602001916114f3565b820191906000526020600020905b8154815290600101906020018083116114d657829003601f168201915b50505050508152602001600382016040518060600160405290816000820160009054906101000a900473ffffffffffffffffffffffffffffffffffffffff1673ffffffffffffffffffffffffffffffffffffffff1673ffffffffffffffffffffffffffffffffffffffff16815260200160018201805480602002602001604051908101604052809291908181526020016000905b828210156116335783829060005260206000200180546115a69061577a565b80601f01602080910402602001604051908101604052809291908181526020018280546115d29061577a565b801561161f5780601f106115f45761010080835404028352916020019161161f565b820191906000526020600020905b81548152906001019060200180831161160257829003601f168201915b505050505081526020019060010190611587565b5050505081526020016002820160009054906101000a900460ff1615151515815250508152602001600682016040518060600160405290816000820160009054906101000a900473ffffffffffffffffffffffffffffffffffffffff1673ffffffffffffffffffffffffffffffffffffffff1673ffffffffffffffffffffffffffffffffffffffff16815260200160018201805480602002602001604051908101604052809291908181526020016000905b828210156117915783829060005260206000200180546117049061577a565b80601f01602080910402602001604051908101604052809291908181526020018280546117309061577a565b801561177d5780601f106117525761010080835404028352916020019161177d565b820191906000526020600020905b81548152906001019060200180831161176057829003601f168201915b5050505050815260200190600101906116e5565b5050505081526020016002820160009054906101000a900460ff1615151515815250508152602001600982016040518060600160405290816000820160009054906101000a900473ffffffffffffffffffffffffffffffffffffffff1673ffffffffffffffffffffffffffffffffffffffff1673ffffffffffffffffffffffffffffffffffffffff16815260200160018201805480602002602001604051908101604052809291908181526020016000905b828210156118ef5783829060005260206000200180546118629061577a565b80601f016020809104026020016040519081016040528092919081815260200182805461188e9061577a565b80156118db5780601f106118b0576101008083540402835291602001916118db565b820191906000526020600020905b8154815290600101906020018083116118be57829003601f168201915b505050505081526020019060010190611843565b5050505081526020016002820160009054906101000a900460ff1615151515815250508152602001600c820160009054906101000a900460ff166002811115611961577f4e487b7100000000000000000000000000000000000000000000000000000000600052602160045260246000fd5b6002811115611999577f4e487b7100000000000000000000000000000000000000000000000000000000600052602160045260246000fd5b8152602001600c820160019054906101000a900460ff16151515158152602001600d82015481525050905080608001516000015173ffffffffffffffffffffffffffffffffffffffff163373ffffffffffffffffffffffffffffffffffffffff161480611a39575080606001516000015173ffffffffffffffffffffffffffffffffffffffff163373ffffffffffffffffffffffffffffffffffffffff16145b80611a7757508060a001516000015173ffffffffffffffffffffffffffffffffffffffff163373ffffffffffffffffffffffffffffffffffffffff16145b611ab6576040517f08c379a0000000000000000000000000000000000000000000000000000000008152600401611aad90615414565b60405180910390fd5b85858080601f016020809104026020016040519081016040528093929190818152602001838380828437600081840152601f19601f820116905080830192505050505050506000815111611b3f576040517f08c379a0000000000000000000000000000000000000000000000000000000008152600401611b3690615394565b60405180910390fd5b611b48886126dc565b6000600460008a815260200190815260200160002090508060060160000160009054906101000a900473ffffffffffffffffffffffffffffffffffffffff1673ffffffffffffffffffffffffffffffffffffffff163373ffffffffffffffffffffffffffffffffffffffff161415611c025780600601600101888890918060018154018082558091505060019003906000526020600020016000909192909192909192909192509190611bfc92919061486d565b50611d46565b8060030160000160009054906101000a900473ffffffffffffffffffffffffffffffffffffffff1673ffffffffffffffffffffffffffffffffffffffff163373ffffffffffffffffffffffffffffffffffffffff161415611ca55780600301600101888890918060018154018082558091505060019003906000526020600020016000909192909192909192909192509190611c9f92919061486d565b50611d45565b8060090160000160009054906101000a900473ffffffffffffffffffffffffffffffffffffffff1673ffffffffffffffffffffffffffffffffffffffff163373ffffffffffffffffffffffffffffffffffffffff161415611d445780600901600101888890918060018154018082558091505060019003906000526020600020016000909192909192909192909192509190611d4292919061486d565b505b5b5b505050505050505050565b611d596148f3565b600060046000848152602001908152602001600020604051806101200160405290816000820154815260200160018201548152602001600282018054611d9e9061577a565b80601f0160208091040260200160405190810160405280929190818152602001828054611dca9061577a565b8015611e175780601f10611dec57610100808354040283529160200191611e17565b820191906000526020600020905b815481529060010190602001808311611dfa57829003601f168201915b50505050508152602001600382016040518060600160405290816000820160009054906101000a900473ffffffffffffffffffffffffffffffffffffffff1673ffffffffffffffffffffffffffffffffffffffff1673ffffffffffffffffffffffffffffffffffffffff16815260200160018201805480602002602001604051908101604052809291908181526020016000905b82821015611f57578382906000526020600020018054611eca9061577a565b80601f0160208091040260200160405190810160405280929190818152602001828054611ef69061577a565b8015611f435780601f10611f1857610100808354040283529160200191611f43565b820191906000526020600020905b815481529060010190602001808311611f2657829003601f168201915b505050505081526020019060010190611eab565b5050505081526020016002820160009054906101000a900460ff1615151515815250508152602001600682016040518060600160405290816000820160009054906101000a900473ffffffffffffffffffffffffffffffffffffffff1673ffffffffffffffffffffffffffffffffffffffff1673ffffffffffffffffffffffffffffffffffffffff16815260200160018201805480602002602001604051908101604052809291908181526020016000905b828210156120b55783829060005260206000200180546120289061577a565b80601f01602080910402602001604051908101604052809291908181526020018280546120549061577a565b80156120a15780601f10612076576101008083540402835291602001916120a1565b820191906000526020600020905b81548152906001019060200180831161208457829003601f168201915b505050505081526020019060010190612009565b5050505081526020016002820160009054906101000a900460ff1615151515815250508152602001600982016040518060600160405290816000820160009054906101000a900473ffffffffffffffffffffffffffffffffffffffff1673ffffffffffffffffffffffffffffffffffffffff1673ffffffffffffffffffffffffffffffffffffffff16815260200160018201805480602002602001604051908101604052809291908181526020016000905b828210156122135783829060005260206000200180546121869061577a565b80601f01602080910402602001604051908101604052809291908181526020018280546121b29061577a565b80156121ff5780601f106121d4576101008083540402835291602001916121ff565b820191906000526020600020905b8154815290600101906020018083116121e257829003601f168201915b505050505081526020019060010190612167565b5050505081526020016002820160009054906101000a900460ff1615151515815250508152602001600c820160009054906101000a900460ff166002811115612285577f4e487b7100000000000000000000000000000000000000000000000000000000600052602160045260246000fd5b60028111156122bd577f4e487b7100000000000000000000000000000000000000000000000000000000600052602160045260246000fd5b8152602001600c820160019054906101000a900460ff16151515158152602001600d82015481525050905080915050919050565b806001548110612336576040517f08c379a000000000000000000000000000000000000000000000000000000000815260040161232d90615254565b60405180910390fd5b8160046000828152602001908152602001600020600c0160019054906101000a900460ff161561239b576040517f08c379a0000000000000000000000000000000000000000000000000000000008152600401612392906152f4565b60405180910390fd5b6123a4836126dc565b6000600460008581526020019081526020016000209050600073ffffffffffffffffffffffffffffffffffffffff168160090160000160009054906101000a900473ffffffffffffffffffffffffffffffffffffffff1673ffffffffffffffffffffffffffffffffffffffff1614612451576040517f08c379a0000000000000000000000000000000000000000000000000000000008152600401612448906153b4565b60405180910390fd5b8060060160000160009054906101000a900473ffffffffffffffffffffffffffffffffffffffff1673ffffffffffffffffffffffffffffffffffffffff163373ffffffffffffffffffffffffffffffffffffffff161415801561250757508060030160000160009054906101000a900473ffffffffffffffffffffffffffffffffffffffff1673ffffffffffffffffffffffffffffffffffffffff163373ffffffffffffffffffffffffffffffffffffffff1614155b612546576040517f08c379a000000000000000000000000000000000000000000000000000000000815260040161253d906153f4565b60405180910390fd5b60028081111561257f577f4e487b7100000000000000000000000000000000000000000000000000000000600052602160045260246000fd5b81600c0160009054906101000a900460ff1660028111156125c9577f4e487b7100000000000000000000000000000000000000000000000000000000600052602160045260246000fd5b14612609576040517f08c379a000000000000000000000000000000000000000000000000000000000815260040161260090615354565b60405180910390fd5b61261161498b565b33816000019073ffffffffffffffffffffffffffffffffffffffff16908173ffffffffffffffffffffffffffffffffffffffff1681525050808260090160008201518160000160006101000a81548173ffffffffffffffffffffffffffffffffffffffff021916908373ffffffffffffffffffffffffffffffffffffffff16021790555060208201518160010190805190602001906126b19291906149c4565b5060408201518160020160006101000a81548160ff0219169083151502179055509050505050505050565b60006004600083815260200190815260200160002090508060030160020160009054906101000a900460ff161580156127965750600280811115612749577f4e487b7100000000000000000000000000000000000000000000000000000000600052602160045260246000fd5b81600c0160009054906101000a900460ff166002811115612793577f4e487b7100000000000000000000000000000000000000000000000000000000600052602160045260246000fd5b14155b156127d9574281600d0154116127d8576127d7818260060160000160009054906101000a900473ffffffffffffffffffffffffffffffffffffffff166144f8565b5b5b5050565b816001548110612822576040517f08c379a000000000000000000000000000000000000000000000000000000000815260040161281990615254565b60405180910390fd5b8160008111612866576040517f08c379a000000000000000000000000000000000000000000000000000000000815260040161285d906152b4565b60405180910390fd5b60006004600086815260200190815260200160002090508060060160000160009054906101000a900473ffffffffffffffffffffffffffffffffffffffff1673ffffffffffffffffffffffffffffffffffffffff163373ffffffffffffffffffffffffffffffffffffffff1614612912576040517f08c379a0000000000000000000000000000000000000000000000000000000008152600401612909906152d4565b60405180910390fd5b8381600d015461292291906155a4565b81600d01819055505050505050565b60606000600360008473ffffffffffffffffffffffffffffffffffffffff1673ffffffffffffffffffffffffffffffffffffffff1681526020019081526020016000208054806020026020016040519081016040528092919081815260200182805480156129be57602002820191906000526020600020905b8154815260200190600101908083116129aa575b5050505050905080915050919050565b60606002805480602002602001604051908101604052809291908181526020018280548015612a1c57602002820191906000526020600020905b815481526020019060010190808311612a08575b5050505050905090565b806001548110612a6b576040517f08c379a0000000000000000000000000000000000000000000000000000000008152600401612a6290615254565b60405180910390fd5b60003411612aae576040517f08c379a0000000000000000000000000000000000000000000000000000000008152600401612aa590615334565b60405180910390fd5b612ab7826126dc565b60006004600084815260200190815260200160002090508060060160000160009054906101000a900473ffffffffffffffffffffffffffffffffffffffff1673ffffffffffffffffffffffffffffffffffffffff163373ffffffffffffffffffffffffffffffffffffffff1614612b63576040517f08c379a0000000000000000000000000000000000000000000000000000000008152600401612b5a90615274565b60405180910390fd5b348160010154612b7391906155a4565b8160010181905550505050565b806001548110612bc5576040517f08c379a0000000000000000000000000000000000000000000000000000000008152600401612bbc90615254565b60405180910390fd5b8160046000828152602001908152602001600020600c0160019054906101000a900460ff1615612c2a576040517f08c379a0000000000000000000000000000000000000000000000000000000008152600401612c21906152f4565b60405180910390fd5b82600060046000838152602001908152602001600020604051806101200160405290816000820154815260200160018201548152602001600282018054612c709061577a565b80601f0160208091040260200160405190810160405280929190818152602001828054612c9c9061577a565b8015612ce95780601f10612cbe57610100808354040283529160200191612ce9565b820191906000526020600020905b815481529060010190602001808311612ccc57829003601f168201915b50505050508152602001600382016040518060600160405290816000820160009054906101000a900473ffffffffffffffffffffffffffffffffffffffff1673ffffffffffffffffffffffffffffffffffffffff1673ffffffffffffffffffffffffffffffffffffffff16815260200160018201805480602002602001604051908101604052809291908181526020016000905b82821015612e29578382906000526020600020018054612d9c9061577a565b80601f0160208091040260200160405190810160405280929190818152602001828054612dc89061577a565b8015612e155780601f10612dea57610100808354040283529160200191612e15565b820191906000526020600020905b815481529060010190602001808311612df857829003601f168201915b505050505081526020019060010190612d7d565b5050505081526020016002820160009054906101000a900460ff1615151515815250508152602001600682016040518060600160405290816000820160009054906101000a900473ffffffffffffffffffffffffffffffffffffffff1673ffffffffffffffffffffffffffffffffffffffff1673ffffffffffffffffffffffffffffffffffffffff16815260200160018201805480602002602001604051908101604052809291908181526020016000905b82821015612f87578382906000526020600020018054612efa9061577a565b80601f0160208091040260200160405190810160405280929190818152602001828054612f269061577a565b8015612f735780601f10612f4857610100808354040283529160200191612f73565b820191906000526020600020905b815481529060010190602001808311612f5657829003601f168201915b505050505081526020019060010190612edb565b5050505081526020016002820160009054906101000a900460ff1615151515815250508152602001600982016040518060600160405290816000820160009054906101000a900473ffffffffffffffffffffffffffffffffffffffff1673ffffffffffffffffffffffffffffffffffffffff1673ffffffffffffffffffffffffffffffffffffffff16815260200160018201805480602002602001604051908101604052809291908181526020016000905b828210156130e55783829060005260206000200180546130589061577a565b80601f01602080910402602001604051908101604052809291908181526020018280546130849061577a565b80156130d15780601f106130a6576101008083540402835291602001916130d1565b820191906000526020600020905b8154815290600101906020018083116130b457829003601f168201915b505050505081526020019060010190613039565b5050505081526020016002820160009054906101000a900460ff1615151515815250508152602001600c820160009054906101000a900460ff166002811115613157577f4e487b7100000000000000000000000000000000000000000000000000000000600052602160045260246000fd5b600281111561318f577f4e487b7100000000000000000000000000000000000000000000000000000000600052602160045260246000fd5b8152602001600c820160019054906101000a900460ff16151515158152602001600d82015481525050905080608001516000015173ffffffffffffffffffffffffffffffffffffffff163373ffffffffffffffffffffffffffffffffffffffff16148061322f575080606001516000015173ffffffffffffffffffffffffffffffffffffffff163373ffffffffffffffffffffffffffffffffffffffff16145b8061326d57508060a001516000015173ffffffffffffffffffffffffffffffffffffffff163373ffffffffffffffffffffffffffffffffffffffff16145b6132ac576040517f08c379a00000000000000000000000000000000000000000000000000000000081526004016132a390615414565b60405180910390fd5b846000600460008381526020019081526020016000206040518061012001604052908160008201548152602001600182015481526020016002820180546132f29061577a565b80601f016020809104026020016040519081016040528092919081815260200182805461331e9061577a565b801561336b5780601f106133405761010080835404028352916020019161336b565b820191906000526020600020905b81548152906001019060200180831161334e57829003601f168201915b50505050508152602001600382016040518060600160405290816000820160009054906101000a900473ffffffffffffffffffffffffffffffffffffffff1673ffffffffffffffffffffffffffffffffffffffff1673ffffffffffffffffffffffffffffffffffffffff16815260200160018201805480602002602001604051908101604052809291908181526020016000905b828210156134ab57838290600052602060002001805461341e9061577a565b80601f016020809104026020016040519081016040528092919081815260200182805461344a9061577a565b80156134975780601f1061346c57610100808354040283529160200191613497565b820191906000526020600020905b81548152906001019060200180831161347a57829003601f168201915b5050505050815260200190600101906133ff565b5050505081526020016002820160009054906101000a900460ff1615151515815250508152602001600682016040518060600160405290816000820160009054906101000a900473ffffffffffffffffffffffffffffffffffffffff1673ffffffffffffffffffffffffffffffffffffffff1673ffffffffffffffffffffffffffffffffffffffff16815260200160018201805480602002602001604051908101604052809291908181526020016000905b8282101561360957838290600052602060002001805461357c9061577a565b80601f01602080910402602001604051908101604052809291908181526020018280546135a89061577a565b80156135f55780601f106135ca576101008083540402835291602001916135f5565b820191906000526020600020905b8154815290600101906020018083116135d857829003601f168201915b50505050508152602001906001019061355d565b5050505081526020016002820160009054906101000a900460ff1615151515815250508152602001600982016040518060600160405290816000820160009054906101000a900473ffffffffffffffffffffffffffffffffffffffff1673ffffffffffffffffffffffffffffffffffffffff1673ffffffffffffffffffffffffffffffffffffffff16815260200160018201805480602002602001604051908101604052809291908181526020016000905b828210156137675783829060005260206000200180546136da9061577a565b80601f01602080910402602001604051908101604052809291908181526020018280546137069061577a565b80156137535780601f1061372857610100808354040283529160200191613753565b820191906000526020600020905b81548152906001019060200180831161373657829003601f168201915b5050505050815260200190600101906136bb565b5050505081526020016002820160009054906101000a900460ff1615151515815250508152602001600c820160009054906101000a900460ff1660028111156137d9577f4e487b7100000000000000000000000000000000000000000000000000000000600052602160045260246000fd5b6002811115613811577f4e487b7100000000000000000000000000000000000000000000000000000000600052602160045260246000fd5b8152602001600c820160019054906101000a900460ff16151515158152602001600d820154815250509050600280811115613875577f4e487b7100000000000000000000000000000000000000000000000000000000600052602160045260246000fd5b8160c0015160028111156138b2577f4e487b7100000000000000000000000000000000000000000000000000000000600052602160045260246000fd5b141561392f578060a001516000015173ffffffffffffffffffffffffffffffffffffffff163373ffffffffffffffffffffffffffffffffffffffff161461392e576040517f08c379a000000000000000000000000000000000000000000000000000000000815260040161392590615314565b60405180910390fd5b5b613938876126dc565b60006004600089815260200190815260200160002090508060060160000160009054906101000a900473ffffffffffffffffffffffffffffffffffffffff1673ffffffffffffffffffffffffffffffffffffffff163373ffffffffffffffffffffffffffffffffffffffff1614156139ff578060030160020160009054906101000a900460ff166139fe576040517f08c379a00000000000000000000000000000000000000000000000000000000081526004016139f5906153d4565b60405180910390fd5b5b60006002811115613a39577f4e487b7100000000000000000000000000000000000000000000000000000000600052602160045260246000fd5b81600c0160009054906101000a900460ff166002811115613a83577f4e487b7100000000000000000000000000000000000000000000000000000000600052602160045260246000fd5b1415613c0f578060060160000160009054906101000a900473ffffffffffffffffffffffffffffffffffffffff1673ffffffffffffffffffffffffffffffffffffffff163373ffffffffffffffffffffffffffffffffffffffff161415613b7c5760008160060160020160006101000a81548160ff02191690831515021790555060008160030160020160006101000a81548160ff021916908315150217905550600181600c0160006101000a81548160ff02191690836002811115613b72577f4e487b7100000000000000000000000000000000000000000000000000000000600052602160045260246000fd5b0217905550613c0a565b8060030160000160009054906101000a900473ffffffffffffffffffffffffffffffffffffffff1673ffffffffffffffffffffffffffffffffffffffff163373ffffffffffffffffffffffffffffffffffffffff161415613c0957613c08818260060160000160009054906101000a900473ffffffffffffffffffffffffffffffffffffffff166144f8565b5b5b613f09565b60016002811115613c49577f4e487b7100000000000000000000000000000000000000000000000000000000600052602160045260246000fd5b81600c0160009054906101000a900460ff166002811115613c93577f4e487b7100000000000000000000000000000000000000000000000000000000600052602160045260246000fd5b1415613e4c578060060160000160009054906101000a900473ffffffffffffffffffffffffffffffffffffffff1673ffffffffffffffffffffffffffffffffffffffff163373ffffffffffffffffffffffffffffffffffffffff161415613db95760008160060160020160006101000a81548160ff02191690831515021790555060008160030160020160006101000a81548160ff021916908315150217905550600281600c0160006101000a81548160ff02191690836002811115613d82577f4e487b7100000000000000000000000000000000000000000000000000000000600052602160045260246000fd5b0217905550600281600001549080600181540180825580915050600190039060005260206000200160009091909190915055613e47565b8060030160000160009054906101000a900473ffffffffffffffffffffffffffffffffffffffff1673ffffffffffffffffffffffffffffffffffffffff163373ffffffffffffffffffffffffffffffffffffffff161415613e4657613e45818260060160000160009054906101000a900473ffffffffffffffffffffffffffffffffffffffff166144f8565b5b5b613f08565b600280811115613e85577f4e487b7100000000000000000000000000000000000000000000000000000000600052602160045260246000fd5b81600c0160009054906101000a900460ff166002811115613ecf577f4e487b7100000000000000000000000000000000000000000000000000000000600052602160045260246000fd5b1415613f0757613f06818260060160000160009054906101000a900473ffffffffffffffffffffffffffffffffffffffff166144f8565b5b5b5b5050505050505050565b60005481565b60003411613f5c576040517f08c379a0000000000000000000000000000000000000000000000000000000008152600401613f5390615334565b60405180910390fd5b816000815111613fa1576040517f08c379a0000000000000000000000000000000000000000000000000000000008152600401613f9890615394565b60405180910390fd5b8160008111613fe5576040517f08c379a0000000000000000000000000000000000000000000000000000000008152600401613fdc906152b4565b60405180910390fd5b613fed6148f3565b613ff561498b565b613ffd61498b565b87826000019073ffffffffffffffffffffffffffffffffffffffff16908173ffffffffffffffffffffffffffffffffffffffff168152505033816000019073ffffffffffffffffffffffffffffffffffffffff16908173ffffffffffffffffffffffffffffffffffffffff16815250506001548360000181815250508183606001819052508083608001819052503483602001818152505086836040018190525060008360c0019060028111156140dd577f4e487b7100000000000000000000000000000000000000000000000000000000600052602160045260246000fd5b90816002811115614117577f4e487b7100000000000000000000000000000000000000000000000000000000600052602160045260246000fd5b81525050854261412791906155a4565b836101000181815250508260046000600154815260200190815260200160002060008201518160000155602082015181600101556040820151816002019080519060200190614177929190614a24565b5060608201518160030160008201518160000160006101000a81548173ffffffffffffffffffffffffffffffffffffffff021916908373ffffffffffffffffffffffffffffffffffffffff16021790555060208201518160010190805190602001906141e49291906149c4565b5060408201518160020160006101000a81548160ff021916908315150217905550505060808201518160060160008201518160000160006101000a81548173ffffffffffffffffffffffffffffffffffffffff021916908373ffffffffffffffffffffffffffffffffffffffff16021790555060208201518160010190805190602001906142739291906149c4565b5060408201518160020160006101000a81548160ff021916908315150217905550505060a08201518160090160008201518160000160006101000a81548173ffffffffffffffffffffffffffffffffffffffff021916908373ffffffffffffffffffffffffffffffffffffffff16021790555060208201518160010190805190602001906143029291906149c4565b5060408201518160020160006101000a81548160ff021916908315150217905550505060c082015181600c0160006101000a81548160ff02191690836002811115614376577f4e487b7100000000000000000000000000000000000000000000000000000000600052602160045260246000fd5b021790555060e082015181600c0160016101000a81548160ff02191690831515021790555061010082015181600d0155905050600360008973ffffffffffffffffffffffffffffffffffffffff1673ffffffffffffffffffffffffffffffffffffffff16815260200190815260200160002083600001519080600181540180825580915050600190039060005260206000200160009091909190915055600360003373ffffffffffffffffffffffffffffffffffffffff1673ffffffffffffffffffffffffffffffffffffffff168152602001908152602001600020836000015190806001815401808255809150506001900390600052602060002001600090919091909150557f29f3694a7f1bf1237139ba49f698a8a03b08ec5880b314324d2c8b71c76223f16001548460015460046000600154815260200190815260200160002060000154146040516144ce93929190615471565b60405180910390a1600160008154809291906144e9906157dd565b91905055505050505050505050565b600073ffffffffffffffffffffffffffffffffffffffff168260090160000160009054906101000a900473ffffffffffffffffffffffffffffffffffffffff1673ffffffffffffffffffffffffffffffffffffffff1614156145a4578073ffffffffffffffffffffffffffffffffffffffff166108fc83600101549081150290604051600060405180830381858888f1935050505015801561459e573d6000803e3d6000fd5b5061469f565b6000606460005484600101546145ba919061562b565b6145c491906155fa565b905060008184600101546145d89190615685565b90508273ffffffffffffffffffffffffffffffffffffffff166108fc829081150290604051600060405180830381858888f19350505050158015614620573d6000803e3d6000fd5b508360090160000160009054906101000a900473ffffffffffffffffffffffffffffffffffffffff1673ffffffffffffffffffffffffffffffffffffffff166108fc839081150290604051600060405180830381858888f1935050505015801561468e573d6000803e3d6000fd5b5061469c84600001546146c0565b50505b600182600c0160016101000a81548160ff0219169083151502179055505050565b600080600090505b60028054905081101561473c578260028281548110614710577f4e487b7100000000000000000000000000000000000000000000000000000000600052603260045260246000fd5b906000526020600020015414156147295780915061473c565b8080614734906157dd565b9150506146c8565b5060008190505b6002805490508110156148685760016002805490506147629190615685565b8114156147bc5760028054806147a1577f4e487b7100000000000000000000000000000000000000000000000000000000600052603160045260246000fd5b60019003818190600052602060002001600090559055614868565b60026001826147cb91906155a4565b81548110614802577f4e487b7100000000000000000000000000000000000000000000000000000000600052603260045260246000fd5b906000526020600020015460028281548110614847577f4e487b7100000000000000000000000000000000000000000000000000000000600052603260045260246000fd5b90600052602060002001819055508080614860906157dd565b915050614743565b505050565b8280546148799061577a565b90600052602060002090601f01602090048101928261489b57600085556148e2565b82601f106148b457803560ff19168380011785556148e2565b828001600101855582156148e2579182015b828111156148e15782358255916020019190600101906148c6565b5b5090506148ef9190614aaa565b5090565b60405180610120016040528060008152602001600081526020016060815260200161491c61498b565b815260200161492961498b565b815260200161493661498b565b815260200160006002811115614975577f4e487b7100000000000000000000000000000000000000000000000000000000600052602160045260246000fd5b8152602001600015158152602001600081525090565b6040518060600160405280600073ffffffffffffffffffffffffffffffffffffffff168152602001606081526020016000151581525090565b828054828255906000526020600020908101928215614a13579160200282015b82811115614a12578251829080519060200190614a02929190614a24565b50916020019190600101906149e4565b5b509050614a209190614ac7565b5090565b828054614a309061577a565b90600052602060002090601f016020900481019282614a525760008555614a99565b82601f10614a6b57805160ff1916838001178555614a99565b82800160010185558215614a99579182015b82811115614a98578251825591602001919060010190614a7d565b5b509050614aa69190614aaa565b5090565b5b80821115614ac3576000816000905550600101614aab565b5090565b5b80821115614ae75760008181614ade9190614aeb565b50600101614ac8565b5090565b508054614af79061577a565b6000825580601f10614b095750614b28565b601f016020900490600052602060002090810190614b279190614aaa565b5b50565b6000614b3e614b39846154d4565b6154af565b905082815260208101848484011115614b5657600080fd5b614b61848285615738565b509392505050565b600081359050614b7881615dfd565b92915050565b600081359050614b8d81615e14565b92915050565b60008083601f840112614ba557600080fd5b8235905067ffffffffffffffff811115614bbe57600080fd5b602083019150836001820283011115614bd657600080fd5b9250929050565b600082601f830112614bee57600080fd5b8135614bfe848260208601614b2b565b91505092915050565b600081359050614c1681615e2b565b92915050565b600060208284031215614c2e57600080fd5b6000614c3c84828501614b69565b91505092915050565b600080600060608486031215614c5a57600080fd5b6000614c6886828701614b7e565b935050602084013567ffffffffffffffff811115614c8557600080fd5b614c9186828701614bdd565b9250506040614ca286828701614c07565b9150509250925092565b600060208284031215614cbe57600080fd5b6000614ccc84828501614c07565b91505092915050565b600080600060408486031215614cea57600080fd5b6000614cf886828701614c07565b935050602084013567ffffffffffffffff811115614d1557600080fd5b614d2186828701614b93565b92509250509250925092565b60008060408385031215614d4057600080fd5b6000614d4e85828601614c07565b9250506020614d5f85828601614c07565b9150509250929050565b6000614d758383614ea4565b905092915050565b6000614d898383615214565b60208301905092915050565b614d9e816156cb565b82525050565b6000614daf82615525565b614db98185615560565b935083602082028501614dcb85615505565b8060005b85811015614e075784840389528151614de88582614d69565b9450614df383615546565b925060208a01995050600181019050614dcf565b50829750879550505050505092915050565b6000614e2482615530565b614e2e8185615571565b9350614e3983615515565b8060005b83811015614e6a578151614e518882614d7d565b9750614e5c83615553565b925050600181019050614e3d565b5085935050505092915050565b614e80816156dd565b82525050565b614e8f816156dd565b82525050565b614e9e81615726565b82525050565b6000614eaf8261553b565b614eb98185615582565b9350614ec9818560208601615747565b614ed281615911565b840191505092915050565b6000614eea601983615593565b9150614ef582615922565b602082019050919050565b6000614f0d602c83615593565b9150614f188261594b565b604082019050919050565b6000614f30602083615593565b9150614f3b8261599a565b602082019050919050565b6000614f53602183615593565b9150614f5e826159c3565b604082019050919050565b6000614f76603683615593565b9150614f8182615a12565b604082019050919050565b6000614f99602483615593565b9150614fa482615a61565b604082019050919050565b6000614fbc604183615593565b9150614fc782615ab0565b606082019050919050565b6000614fdf602383615593565b9150614fea82615b25565b604082019050919050565b6000615002604183615593565b915061500d82615b74565b606082019050919050565b6000615025603e83615593565b915061503082615be9565b604082019050919050565b6000615048602783615593565b915061505382615c38565b604082019050919050565b600061506b603483615593565b915061507682615c87565b604082019050919050565b600061508e604583615593565b915061509982615cd6565b606082019050919050565b60006150b1603583615593565b91506150bc82615d4b565b604082019050919050565b60006150d4603183615593565b91506150df82615d9a565b604082019050919050565b6000610120830160008301516151036000860182615214565b5060208301516151166020860182615214565b506040830151848203604086015261512e8282614ea4565b9150506060830151848203606086015261514882826151c4565b9150506080830151848203608086015261516282826151c4565b91505060a083015184820360a086015261517c82826151c4565b91505060c083015161519160c0860182614e95565b5060e08301516151a460e0860182614e77565b506101008301516151b9610100860182615214565b508091505092915050565b60006060830160008301516151dc6000860182614d95565b50602083015184820360208601526151f48282614da4565b91505060408301516152096040860182614e77565b508091505092915050565b61521d8161571c565b82525050565b61522c8161571c565b82525050565b6000602082019050818103600083015261524c8184614e19565b905092915050565b6000602082019050818103600083015261526d81614edd565b9050919050565b6000602082019050818103600083015261528d81614f00565b9050919050565b600060208201905081810360008301526152ad81614f23565b9050919050565b600060208201905081810360008301526152cd81614f46565b9050919050565b600060208201905081810360008301526152ed81614f69565b9050919050565b6000602082019050818103600083015261530d81614f8c565b9050919050565b6000602082019050818103600083015261532d81614faf565b9050919050565b6000602082019050818103600083015261534d81614fd2565b9050919050565b6000602082019050818103600083015261536d81614ff5565b9050919050565b6000602082019050818103600083015261538d81615018565b9050919050565b600060208201905081810360008301526153ad8161503b565b9050919050565b600060208201905081810360008301526153cd8161505e565b9050919050565b600060208201905081810360008301526153ed81615081565b9050919050565b6000602082019050818103600083015261540d816150a4565b9050919050565b6000602082019050818103600083015261542d816150c7565b9050919050565b6000602082019050818103600083015261544e81846150ea565b905092915050565b600060208201905061546b6000830184615223565b92915050565b60006060820190506154866000830186615223565b818103602083015261549881856150ea565b90506154a76040830184614e86565b949350505050565b60006154b96154ca565b90506154c582826157ac565b919050565b6000604051905090565b600067ffffffffffffffff8211156154ef576154ee6158e2565b5b6154f882615911565b9050602081019050919050565b6000819050602082019050919050565b6000819050602082019050919050565b600081519050919050565b600081519050919050565b600081519050919050565b6000602082019050919050565b6000602082019050919050565b600082825260208201905092915050565b600082825260208201905092915050565b600082825260208201905092915050565b600082825260208201905092915050565b60006155af8261571c565b91506155ba8361571c565b9250827fffffffffffffffffffffffffffffffffffffffffffffffffffffffffffffffff038211156155ef576155ee615826565b5b828201905092915050565b60006156058261571c565b91506156108361571c565b9250826156205761561f615855565b5b828204905092915050565b60006156368261571c565b91506156418361571c565b9250817fffffffffffffffffffffffffffffffffffffffffffffffffffffffffffffffff048311821515161561567a57615679615826565b5b828202905092915050565b60006156908261571c565b915061569b8361571c565b9250828210156156ae576156ad615826565b5b828203905092915050565b60006156c4826156fc565b9050919050565b60006156d6826156fc565b9050919050565b60008115159050919050565b60008190506156f782615de9565b919050565b600073ffffffffffffffffffffffffffffffffffffffff82169050919050565b6000819050919050565b6000615731826156e9565b9050919050565b82818337600083830152505050565b60005b8381101561576557808201518184015260208101905061574a565b83811115615774576000848401525b50505050565b6000600282049050600182168061579257607f821691505b602082108114156157a6576157a56158b3565b5b50919050565b6157b582615911565b810181811067ffffffffffffffff821117156157d4576157d36158e2565b5b80604052505050565b60006157e88261571c565b91507fffffffffffffffffffffffffffffffffffffffffffffffffffffffffffffffff82141561581b5761581a615826565b5b600182019050919050565b7f4e487b7100000000000000000000000000000000000000000000000000000000600052601160045260246000fd5b7f4e487b7100000000000000000000000000000000000000000000000000000000600052601260045260246000fd5b7f4e487b7100000000000000000000000000000000000000000000000000000000600052602160045260246000fd5b7f4e487b7100000000000000000000000000000000000000000000000000000000600052602260045260246000fd5b7f4e487b7100000000000000000000000000000000000000000000000000000000600052604160045260246000fd5b6000601f19601f8301169050919050565b7f4d757374207061737320612076616c6964207461736b20494400000000000000600082015250565b7f4f6e6c792074686520636f6e73756d6572206f662074686973207461736b206d60008201527f6179206164642066756e64730000000000000000000000000000000000000000602082015250565b7f596f752063616e206e6f7420617070726f76652061207461736b207477696365600082015250565b7f4d757374207061737320612076616c69642065787069726174696f6e2064617460008201527f6500000000000000000000000000000000000000000000000000000000000000602082015250565b7f4f6e6c792074686520636f6e73756d6572206f662074686973207461736b206d60008201527f6179206164642065787069726174696f6e2074696d6500000000000000000000602082015250565b7f54686973207461736b2068617320616c7265616479206265656e20636f6d706c60008201527f6574656400000000000000000000000000000000000000000000000000000000602082015250565b7f4f6e6c7920746865207468697264207061727479206d6179206d616b6520612060008201527f6465636973696f6e2061742074686973207374616765206f662064697370757460208201527f6500000000000000000000000000000000000000000000000000000000000000604082015250565b7f4d7573742073656e6420657468657220746f20657865637574652066756e637460008201527f696f6e0000000000000000000000000000000000000000000000000000000000602082015250565b7f43616e6e6f742061737369676e206120746869726420706172747920746f207460008201527f686973207461736b20756e74696c20696e7465726e616c6c792064656369646560208201527f6400000000000000000000000000000000000000000000000000000000000000604082015250565b7f50726f7669646572206d75737420617070726f7665207461736b206265666f7260008201527f6520796f752063616e20617070726f766520657468207472616e736665720000602082015250565b7f537472696e6720617267756d656e74206d757374206265206f662076616c696460008201527f206c656e67746800000000000000000000000000000000000000000000000000602082015250565b7f412074686972642070617274792068617320616c7265616479206265656e206160008201527f737369676e656420746f2074686973207461736b000000000000000000000000602082015250565b7f50726f7669646572206d75737420617070726f7665207461736b206f6e20746860008201527f65697220656e64206265666f726520796f752063616e206f70656e206120646960208201527f7370757465000000000000000000000000000000000000000000000000000000604082015250565b7f54686972642070617274792063616e206e6f7420616c7265616479206265206360008201527f6f6e6e656374656420746f2074686973207461736b0000000000000000000000602082015250565b7f43616e206e6f7420696e74657261637420776974682061207461736b20796f7560008201527f277265206e6f7420612070617274206f66000000000000000000000000000000602082015250565b60038110615dfa57615df9615884565b5b50565b615e06816156b9565b8114615e1157600080fd5b50565b615e1d816156cb565b8114615e2857600080fd5b50565b615e348161571c565b8114615e3f57600080fd5b5056fea2646970667358221220f9772bbe5f7c405bc39d8d4021fe9211d4ac3b462ccc1493162d7dc31c28318b64736f6c63430008040033",
  "linkReferences": {},
  "deployedLinkReferences": {}
}