{
  "_format": "hh-sol-artifact-1",
  "contractName": "TaskAgreement",
  "sourceName": "contracts/TaskAgreement.sol",
  "abi": [
    {
      "anonymous": false,
      "inputs": [
        {
          "indexed": false,
          "internalType": "uint256",
          "name": "id",
          "type": "uint256"
        },
        {
          "components": [
            {
              "internalType": "uint256",
              "name": "id",
              "type": "uint256"
            },
            {
              "internalType": "uint256",
              "name": "price",
              "type": "uint256"
            },
            {
              "internalType": "string",
              "name": "description",
              "type": "string"
            },
            {
              "components": [
                {
                  "internalType": "address payable",
                  "name": "to",
                  "type": "address"
                },
                {
                  "internalType": "string[]",
                  "name": "evidence",
                  "type": "string[]"
                },
                {
                  "internalType": "bool",
                  "name": "approved",
                  "type": "bool"
                }
              ],
              "internalType": "struct TaskAgreement.User",
              "name": "provider",
              "type": "tuple"
            },
            {
              "components": [
                {
                  "internalType": "address payable",
                  "name": "to",
                  "type": "address"
                },
                {
                  "internalType": "string[]",
                  "name": "evidence",
                  "type": "string[]"
                },
                {
                  "internalType": "bool",
                  "name": "approved",
                  "type": "bool"
                }
              ],
              "internalType": "struct TaskAgreement.User",
              "name": "consumer",
              "type": "tuple"
            },
            {
              "components": [
                {
                  "internalType": "address payable",
                  "name": "to",
                  "type": "address"
                },
                {
                  "internalType": "string[]",
                  "name": "evidence",
                  "type": "string[]"
                },
                {
                  "internalType": "bool",
                  "name": "approved",
                  "type": "bool"
                }
              ],
              "internalType": "struct TaskAgreement.User",
              "name": "thirdParty",
              "type": "tuple"
            },
            {
              "internalType": "enum TaskAgreement.DisputeStage",
              "name": "dispute",
              "type": "uint8"
            },
            {
              "internalType": "bool",
              "name": "completed",
              "type": "bool"
            },
            {
              "internalType": "uint256",
              "name": "expiration",
              "type": "uint256"
            }
          ],
          "indexed": false,
          "internalType": "struct TaskAgreement.Task",
          "name": "task",
          "type": "tuple"
        },
        {
          "indexed": false,
          "internalType": "bool",
          "name": "success",
          "type": "bool"
        }
      ],
      "name": "TaskCreated",
      "type": "event"
    },
    {
      "inputs": [
        {
          "internalType": "uint256",
          "name": "taskId",
          "type": "uint256"
        },
        {
          "internalType": "string",
          "name": "evidence",
          "type": "string"
        }
      ],
      "name": "addEvidence",
      "outputs": [
        {
          "internalType": "bool",
          "name": "",
          "type": "bool"
        }
      ],
      "stateMutability": "nonpayable",
      "type": "function"
    },
    {
      "inputs": [
        {
          "internalType": "uint256",
          "name": "taskId",
          "type": "uint256"
        }
      ],
      "name": "addFunds",
      "outputs": [
        {
          "internalType": "bool",
          "name": "",
          "type": "bool"
        }
      ],
      "stateMutability": "payable",
      "type": "function"
    },
    {
      "inputs": [
        {
          "internalType": "uint256",
          "name": "taskId",
          "type": "uint256"
        },
        {
          "internalType": "uint256",
          "name": "time",
          "type": "uint256"
        }
      ],
      "name": "addTime",
      "outputs": [
        {
          "internalType": "bool",
          "name": "",
          "type": "bool"
        }
      ],
      "stateMutability": "nonpayable",
      "type": "function"
    },
    {
      "inputs": [
        {
          "internalType": "uint256",
          "name": "taskId",
          "type": "uint256"
        }
      ],
      "name": "approveTask",
      "outputs": [
        {
          "internalType": "bool",
          "name": "",
          "type": "bool"
        }
      ],
      "stateMutability": "nonpayable",
      "type": "function"
    },
    {
      "inputs": [
        {
          "internalType": "uint256",
          "name": "taskId",
          "type": "uint256"
        }
      ],
      "name": "assignThirdParty",
      "outputs": [
        {
          "internalType": "bool",
          "name": "",
          "type": "bool"
        }
      ],
      "stateMutability": "nonpayable",
      "type": "function"
    },
    {
      "inputs": [],
      "name": "commission",
      "outputs": [
        {
          "internalType": "uint256",
          "name": "",
          "type": "uint256"
        }
      ],
      "stateMutability": "view",
      "type": "function"
    },
    {
      "inputs": [
        {
          "internalType": "address payable",
          "name": "providerAddress",
          "type": "address"
        },
        {
          "internalType": "string",
          "name": "description",
          "type": "string"
        },
        {
          "internalType": "uint256",
          "name": "expiresIn",
          "type": "uint256"
        }
      ],
      "name": "createTask",
      "outputs": [],
      "stateMutability": "payable",
      "type": "function"
    },
    {
      "inputs": [
        {
          "internalType": "uint256",
          "name": "taskId",
          "type": "uint256"
        }
      ],
      "name": "disapproveTask",
      "outputs": [
        {
          "internalType": "bool",
          "name": "",
          "type": "bool"
        }
      ],
      "stateMutability": "nonpayable",
      "type": "function"
    },
    {
      "inputs": [
        {
          "internalType": "uint256",
          "name": "taskId",
          "type": "uint256"
        }
      ],
      "name": "expireTask",
      "outputs": [
        {
          "internalType": "bool",
          "name": "",
          "type": "bool"
        }
      ],
      "stateMutability": "nonpayable",
      "type": "function"
    },
    {
      "inputs": [],
      "name": "getDisputedTasks",
      "outputs": [
        {
          "components": [
            {
              "internalType": "uint256",
              "name": "id",
              "type": "uint256"
            },
            {
              "internalType": "string",
              "name": "description",
              "type": "string"
            }
          ],
          "internalType": "struct TaskAgreement.TaskRef[]",
          "name": "",
          "type": "tuple[]"
        }
      ],
      "stateMutability": "view",
      "type": "function"
    },
    {
      "inputs": [
        {
          "internalType": "uint256",
          "name": "taskId",
          "type": "uint256"
        }
      ],
      "name": "getTask",
      "outputs": [
        {
          "components": [
            {
              "internalType": "uint256",
              "name": "id",
              "type": "uint256"
            },
            {
              "internalType": "uint256",
              "name": "price",
              "type": "uint256"
            },
            {
              "internalType": "string",
              "name": "description",
              "type": "string"
            },
            {
              "components": [
                {
                  "internalType": "address payable",
                  "name": "to",
                  "type": "address"
                },
                {
                  "internalType": "string[]",
                  "name": "evidence",
                  "type": "string[]"
                },
                {
                  "internalType": "bool",
                  "name": "approved",
                  "type": "bool"
                }
              ],
              "internalType": "struct TaskAgreement.User",
              "name": "provider",
              "type": "tuple"
            },
            {
              "components": [
                {
                  "internalType": "address payable",
                  "name": "to",
                  "type": "address"
                },
                {
                  "internalType": "string[]",
                  "name": "evidence",
                  "type": "string[]"
                },
                {
                  "internalType": "bool",
                  "name": "approved",
                  "type": "bool"
                }
              ],
              "internalType": "struct TaskAgreement.User",
              "name": "consumer",
              "type": "tuple"
            },
            {
              "components": [
                {
                  "internalType": "address payable",
                  "name": "to",
                  "type": "address"
                },
                {
                  "internalType": "string[]",
                  "name": "evidence",
                  "type": "string[]"
                },
                {
                  "internalType": "bool",
                  "name": "approved",
                  "type": "bool"
                }
              ],
              "internalType": "struct TaskAgreement.User",
              "name": "thirdParty",
              "type": "tuple"
            },
            {
              "internalType": "enum TaskAgreement.DisputeStage",
              "name": "dispute",
              "type": "uint8"
            },
            {
              "internalType": "bool",
              "name": "completed",
              "type": "bool"
            },
            {
              "internalType": "uint256",
              "name": "expiration",
              "type": "uint256"
            }
          ],
          "internalType": "struct TaskAgreement.Task",
          "name": "",
          "type": "tuple"
        }
      ],
      "stateMutability": "view",
      "type": "function"
    },
    {
      "inputs": [],
      "name": "getUserTasks",
      "outputs": [
        {
          "components": [
            {
              "internalType": "uint256",
              "name": "id",
              "type": "uint256"
            },
            {
              "internalType": "string",
              "name": "description",
              "type": "string"
            }
          ],
          "internalType": "struct TaskAgreement.TaskRef[]",
          "name": "",
          "type": "tuple[]"
        }
      ],
      "stateMutability": "view",
      "type": "function"
    }
  ],
  "bytecode": "0x6080604052600460005534801561001557600080fd5b50613e7d806100256000396000f3fe6080604052600436106100a75760003560e01c8063791581c611610064578063791581c614610190578063b0227721146101b0578063be999705146101c5578063c2aba82c146101d8578063e1489191146101f8578063fd24bf4b1461021c57600080fd5b80630a07fae6146100ac5780631c3665eb146100e15780631d65e77e1461010157806334112f5f1461012e578063423bfe491461015057806362ecc47a14610170575b600080fd5b3480156100b857600080fd5b506100cc6100c7366004613850565b610231565b60405190151581526020015b60405180910390f35b3480156100ed57600080fd5b506100cc6100fc366004613868565b610e25565b34801561010d57600080fd5b5061012161011c366004613850565b61147f565b6040516100d89190613d19565b34801561013a57600080fd5b506101436118e7565b6040516100d89190613aa8565b34801561015c57600080fd5b506100cc61016b366004613850565b6119ec565b34801561017c57600080fd5b506100cc61018b366004613850565b611d88565b34801561019c57600080fd5b506100cc6101ab3660046138df565b611e08565b3480156101bc57600080fd5b50610143611f51565b6100cc6101d3366004613850565b61204c565b3480156101e457600080fd5b506100cc6101f3366004613850565b612184565b34801561020457600080fd5b5061020e60005481565b6040519081526020016100d8565b61022f61022a36600461377e565b612e8f565b005b600081600154811061025e5760405162461bcd60e51b815260040161025590613b1b565b60405180910390fd5b6000838152600460205260409020600c01548390610100900460ff16156102975760405162461bcd60e51b815260040161025590613b93565b836000600460008381526020019081526020016000206040518061012001604052908160008201548152602001600182015481526020016002820180546102dd90613dc5565b80601f016020809104026020016040519081016040528092919081815260200182805461030990613dc5565b80156103565780601f1061032b57610100808354040283529160200191610356565b820191906000526020600020905b81548152906001019060200180831161033957829003601f168201915b5050509183525050604080516060810182526003840180546001600160a01b0316825260048501805484516020828102820181019096528181529585019593949293858401939092919060009084015b828210156104525783829060005260206000200180546103c590613dc5565b80601f01602080910402602001604051908101604052809291908181526020018280546103f190613dc5565b801561043e5780601f106104135761010080835404028352916020019161043e565b820191906000526020600020905b81548152906001019060200180831161042157829003601f168201915b5050505050815260200190600101906103a6565b505050908252506002919091015460ff161515602091820152908252604080516060810182526006850180546001600160a01b03168252600786018054845181870281018701909552808552958501959294919385830193909260009084015b8282101561055e5783829060005260206000200180546104d190613dc5565b80601f01602080910402602001604051908101604052809291908181526020018280546104fd90613dc5565b801561054a5780601f1061051f5761010080835404028352916020019161054a565b820191906000526020600020905b81548152906001019060200180831161052d57829003601f168201915b5050505050815260200190600101906104b2565b505050908252506002919091015460ff161515602091820152908252604080516060810182526009850180546001600160a01b03168252600a86018054845181870281018701909552808552958501959294919385830193909260009084015b8282101561066a5783829060005260206000200180546105dd90613dc5565b80601f016020809104026020016040519081016040528092919081815260200182805461060990613dc5565b80156106565780601f1061062b57610100808354040283529160200191610656565b820191906000526020600020905b81548152906001019060200180831161063957829003601f168201915b5050505050815260200190600101906105be565b5050509082525060029182015460ff9081161515602092830152928452600c850154930192909116908111156106b057634e487b7160e01b600052602160045260246000fd5b60028111156106cf57634e487b7160e01b600052602160045260246000fd5b8152600c820154610100900460ff1615156020820152600d909101546040909101526080810151519091506001600160a01b031633148061071d57506060810151516001600160a01b031633145b80610735575060a0810151516001600160a01b031633145b6107515760405162461bcd60e51b815260040161025590613cc8565b8560006004600083815260200190815260200160002060405180610120016040529081600082015481526020016001820154815260200160028201805461079790613dc5565b80601f01602080910402602001604051908101604052809291908181526020018280546107c390613dc5565b80156108105780601f106107e557610100808354040283529160200191610810565b820191906000526020600020905b8154815290600101906020018083116107f357829003601f168201915b5050509183525050604080516060810182526003840180546001600160a01b0316825260048501805484516020828102820181019096528181529585019593949293858401939092919060009084015b8282101561090c57838290600052602060002001805461087f90613dc5565b80601f01602080910402602001604051908101604052809291908181526020018280546108ab90613dc5565b80156108f85780601f106108cd576101008083540402835291602001916108f8565b820191906000526020600020905b8154815290600101906020018083116108db57829003601f168201915b505050505081526020019060010190610860565b505050908252506002919091015460ff161515602091820152908252604080516060810182526006850180546001600160a01b03168252600786018054845181870281018701909552808552958501959294919385830193909260009084015b82821015610a1857838290600052602060002001805461098b90613dc5565b80601f01602080910402602001604051908101604052809291908181526020018280546109b790613dc5565b8015610a045780601f106109d957610100808354040283529160200191610a04565b820191906000526020600020905b8154815290600101906020018083116109e757829003601f168201915b50505050508152602001906001019061096c565b505050908252506002919091015460ff161515602091820152908252604080516060810182526009850180546001600160a01b03168252600a86018054845181870281018701909552808552958501959294919385830193909260009084015b82821015610b24578382906000526020600020018054610a9790613dc5565b80601f0160208091040260200160405190810160405280929190818152602001828054610ac390613dc5565b8015610b105780601f10610ae557610100808354040283529160200191610b10565b820191906000526020600020905b815481529060010190602001808311610af357829003601f168201915b505050505081526020019060010190610a78565b5050509082525060029182015460ff9081161515602092830152928452600c85015493019290911690811115610b6a57634e487b7160e01b600052602160045260246000fd5b6002811115610b8957634e487b7160e01b600052602160045260246000fd5b8152600c820154610100900460ff1615156020820152600d90910154604090910152905060028160c001516002811115610bd357634e487b7160e01b600052602160045260246000fd5b1415610c065760a0810151516001600160a01b03163314610c065760405162461bcd60e51b815260040161025590613bd7565b6000610c1189611d88565b90508015610c23576000975050610e1a565b600089815260046020526040902060068101546001600160a01b0316331415610d4257600581015460ff16610cc05760405162461bcd60e51b815260206004820152603e60248201527f50726f7669646572206d75737420617070726f7665207461736b206265666f7260448201527f6520796f752063616e20617070726f766520657468207472616e7366657200006064820152608401610255565b600881015460ff1615610d155760405162461bcd60e51b815260206004820181905260248201527f596f752063616e206e6f7420617070726f76652061207461736b2074776963656044820152606401610255565b60088101805460ff191660011790556003810154610d3d9082906001600160a01b0316613227565b610dbc565b60038101546001600160a01b0316331415610dbc57600581015460ff1615610dac5760405162461bcd60e51b815260206004820181905260248201527f596f752063616e206e6f7420617070726f76652061207461736b2074776963656044820152606401610255565b60058101805460ff191660011790555b6002600c82015460ff166002811115610de557634e487b7160e01b600052602160045260246000fd5b1415610e1357600b8101805460ff191660011790556003810154610e139082906001600160a01b0316613227565b6001985050505b505050505050919050565b6000836001548110610e495760405162461bcd60e51b815260040161025590613b1b565b6000858152600460205260409020600c01548590610100900460ff1615610e825760405162461bcd60e51b815260040161025590613b93565b85600060046000838152602001908152602001600020604051806101200160405290816000820154815260200160018201548152602001600282018054610ec890613dc5565b80601f0160208091040260200160405190810160405280929190818152602001828054610ef490613dc5565b8015610f415780601f10610f1657610100808354040283529160200191610f41565b820191906000526020600020905b815481529060010190602001808311610f2457829003601f168201915b5050509183525050604080516060810182526003840180546001600160a01b0316825260048501805484516020828102820181019096528181529585019593949293858401939092919060009084015b8282101561103d578382906000526020600020018054610fb090613dc5565b80601f0160208091040260200160405190810160405280929190818152602001828054610fdc90613dc5565b80156110295780601f10610ffe57610100808354040283529160200191611029565b820191906000526020600020905b81548152906001019060200180831161100c57829003601f168201915b505050505081526020019060010190610f91565b505050908252506002919091015460ff161515602091820152908252604080516060810182526006850180546001600160a01b03168252600786018054845181870281018701909552808552958501959294919385830193909260009084015b828210156111495783829060005260206000200180546110bc90613dc5565b80601f01602080910402602001604051908101604052809291908181526020018280546110e890613dc5565b80156111355780601f1061110a57610100808354040283529160200191611135565b820191906000526020600020905b81548152906001019060200180831161111857829003601f168201915b50505050508152602001906001019061109d565b505050908252506002919091015460ff161515602091820152908252604080516060810182526009850180546001600160a01b03168252600a86018054845181870281018701909552808552958501959294919385830193909260009084015b828210156112555783829060005260206000200180546111c890613dc5565b80601f01602080910402602001604051908101604052809291908181526020018280546111f490613dc5565b80156112415780601f1061121657610100808354040283529160200191611241565b820191906000526020600020905b81548152906001019060200180831161122457829003601f168201915b5050505050815260200190600101906111a9565b5050509082525060029182015460ff9081161515602092830152928452600c8501549301929091169081111561129b57634e487b7160e01b600052602160045260246000fd5b60028111156112ba57634e487b7160e01b600052602160045260246000fd5b8152600c820154610100900460ff1615156020820152600d909101546040909101526080810151519091506001600160a01b031633148061130857506060810151516001600160a01b031633145b80611320575060a0810151516001600160a01b031633145b61133c5760405162461bcd60e51b815260040161025590613cc8565b86868080601f0160208091040260200160405190810160405280939291908181526020018383808284376000920191909152505082511515915061139490505760405162461bcd60e51b815260040161025590613c81565b600061139f8a611d88565b905080156113b1576000965050611473565b60008a815260046020526040902060068101546001600160a01b03163314156113fc57600781018054600181018255600091825260209091206113f691018b8b6134b9565b5061146c565b60038101546001600160a01b031633141561143357600481018054600181018255600091825260209091206113f691018b8b6134b9565b60098101546001600160a01b031633141561146c57600a810180546001810182556000918252602090912061146a91018b8b6134b9565b505b6001975050505b50505050509392505050565b61148761353d565b6000600460008481526020019081526020016000206040518061012001604052908160008201548152602001600182015481526020016002820180546114cc90613dc5565b80601f01602080910402602001604051908101604052809291908181526020018280546114f890613dc5565b80156115455780601f1061151a57610100808354040283529160200191611545565b820191906000526020600020905b81548152906001019060200180831161152857829003601f168201915b5050509183525050604080516060810182526003840180546001600160a01b0316825260048501805484516020828102820181019096528181529585019593949293858401939092919060009084015b828210156116415783829060005260206000200180546115b490613dc5565b80601f01602080910402602001604051908101604052809291908181526020018280546115e090613dc5565b801561162d5780601f106116025761010080835404028352916020019161162d565b820191906000526020600020905b81548152906001019060200180831161161057829003601f168201915b505050505081526020019060010190611595565b505050908252506002919091015460ff161515602091820152908252604080516060810182526006850180546001600160a01b03168252600786018054845181870281018701909552808552958501959294919385830193909260009084015b8282101561174d5783829060005260206000200180546116c090613dc5565b80601f01602080910402602001604051908101604052809291908181526020018280546116ec90613dc5565b80156117395780601f1061170e57610100808354040283529160200191611739565b820191906000526020600020905b81548152906001019060200180831161171c57829003601f168201915b5050505050815260200190600101906116a1565b505050908252506002919091015460ff161515602091820152908252604080516060810182526009850180546001600160a01b03168252600a86018054845181870281018701909552808552958501959294919385830193909260009084015b828210156118595783829060005260206000200180546117cc90613dc5565b80601f01602080910402602001604051908101604052809291908181526020018280546117f890613dc5565b80156118455780601f1061181a57610100808354040283529160200191611845565b820191906000526020600020905b81548152906001019060200180831161182857829003601f168201915b5050505050815260200190600101906117ad565b5050509082525060029182015460ff9081161515602092830152928452600c8501549301929091169081111561189f57634e487b7160e01b600052602160045260246000fd5b60028111156118be57634e487b7160e01b600052602160045260246000fd5b8152600c820154610100900460ff1615156020820152600d909101546040909101529392505050565b336000908152600360209081526040808320805482518185028101850190935280835260609493849084015b828210156119e157838290600052602060002090600202016040518060400160405290816000820154815260200160018201805461195090613dc5565b80601f016020809104026020016040519081016040528092919081815260200182805461197c90613dc5565b80156119c95780601f1061199e576101008083540402835291602001916119c9565b820191906000526020600020905b8154815290600101906020018083116119ac57829003601f168201915b50505050508152505081526020019060010190611913565b509295945050505050565b6000816001548110611a105760405162461bcd60e51b815260040161025590613b1b565b6000838152600460205260409020600c01548390610100900460ff1615611a495760405162461bcd60e51b815260040161025590613b93565b6000611a5485611d88565b90508015611a66576000935050611d81565b600085815260046020526040902060098101546001600160a01b031615611aec5760405162461bcd60e51b815260206004820152603460248201527f412074686972642070617274792068617320616c7265616479206265656e2061604482015273737369676e656420746f2074686973207461736b60601b6064820152608401610255565b60068101546001600160a01b03163314801590611b16575060038101546001600160a01b03163314155b611b805760405162461bcd60e51b815260206004820152603560248201527f54686972642070617274792063616e206e6f7420616c726561647920626520636044820152746f6e6e656374656420746f2074686973207461736b60581b6064820152608401610255565b6002600c82015460ff166002811115611ba957634e487b7160e01b600052602160045260246000fd5b14611c265760405162461bcd60e51b815260206004820152604160248201527f43616e6e6f742061737369676e206120746869726420706172747920746f207460448201527f686973207461736b20756e74696c20696e7465726e616c6c79206465636964656064820152601960fa1b608482015260a401610255565b611c2e61359b565b604080518082019091526000815260606020820152338083526009840180546001600160a01b03191690911781556020808401518051859392611c7892600a8901929101906135c7565b50604091909101516002918201805460ff19169115159190911790558354825283018054611ca590613dc5565b80601f0160208091040260200160405190810160405280929190818152602001828054611cd190613dc5565b8015611d1e5780601f10611cf357610100808354040283529160200191611d1e565b820191906000526020600020905b815481529060010190602001808311611d0157829003601f168201915b5050505050602082810191825233600090815260038252604081208054600180820183559183529183902085516002909302019182559251805185949293611d6a938501920190613620565b50508354611d789150613339565b60019650505050505b5050919050565b60008181526004602052604081206005810154829060ff16158015611dd457506002600c83015460ff166002811115611dd157634e487b7160e01b600052602160045260246000fd5b14155b15611e01574282600d015411611e01576006820154611dfd9083906001600160a01b0316613227565b5060015b9392505050565b6000826001548110611e2c5760405162461bcd60e51b815260040161025590613b1b565b8260008111611e4d5760405162461bcd60e51b815260040161025590613b52565b6000858152600460205260409020600c01548590610100900460ff1615611e865760405162461bcd60e51b815260040161025590613b93565b6000611e9187611d88565b90508015611ea3576000945050611f48565b600087815260046020526040902060068101546001600160a01b03163314611f2c5760405162461bcd60e51b815260206004820152603660248201527f4f6e6c792074686520636f6e73756d6572206f662074686973207461736b206d6044820152756179206164642065787069726174696f6e2074696d6560501b6064820152608401610255565b8681600d0154611f3c9190613d57565b600d9091015550600193505b50505092915050565b60606002805480602002602001604051908101604052809291908181526020016000905b82821015612043578382906000526020600020906002020160405180604001604052908160008201548152602001600182018054611fb290613dc5565b80601f0160208091040260200160405190810160405280929190818152602001828054611fde90613dc5565b801561202b5780601f106120005761010080835404028352916020019161202b565b820191906000526020600020905b81548152906001019060200180831161200e57829003601f168201915b50505050508152505081526020019060010190611f75565b50505050905090565b60008160015481106120705760405162461bcd60e51b815260040161025590613b1b565b600034116120905760405162461bcd60e51b815260040161025590613c3e565b6000838152600460205260409020600c01548390610100900460ff16156120c95760405162461bcd60e51b815260040161025590613b93565b60006120d485611d88565b905080156120e6576000935050611d81565b600085815260046020526040902060068101546001600160a01b031633146121655760405162461bcd60e51b815260206004820152602c60248201527f4f6e6c792074686520636f6e73756d6572206f662074686973207461736b206d60448201526b6179206164642066756e647360a01b6064820152608401610255565b3481600101546121759190613d57565b60019182015595945050505050565b60008160015481106121a85760405162461bcd60e51b815260040161025590613b1b565b6000838152600460205260409020600c01548390610100900460ff16156121e15760405162461bcd60e51b815260040161025590613b93565b8360006004600083815260200190815260200160002060405180610120016040529081600082015481526020016001820154815260200160028201805461222790613dc5565b80601f016020809104026020016040519081016040528092919081815260200182805461225390613dc5565b80156122a05780601f10612275576101008083540402835291602001916122a0565b820191906000526020600020905b81548152906001019060200180831161228357829003601f168201915b5050509183525050604080516060810182526003840180546001600160a01b0316825260048501805484516020828102820181019096528181529585019593949293858401939092919060009084015b8282101561239c57838290600052602060002001805461230f90613dc5565b80601f016020809104026020016040519081016040528092919081815260200182805461233b90613dc5565b80156123885780601f1061235d57610100808354040283529160200191612388565b820191906000526020600020905b81548152906001019060200180831161236b57829003601f168201915b5050505050815260200190600101906122f0565b505050908252506002919091015460ff161515602091820152908252604080516060810182526006850180546001600160a01b03168252600786018054845181870281018701909552808552958501959294919385830193909260009084015b828210156124a857838290600052602060002001805461241b90613dc5565b80601f016020809104026020016040519081016040528092919081815260200182805461244790613dc5565b80156124945780601f1061246957610100808354040283529160200191612494565b820191906000526020600020905b81548152906001019060200180831161247757829003601f168201915b5050505050815260200190600101906123fc565b505050908252506002919091015460ff161515602091820152908252604080516060810182526009850180546001600160a01b03168252600a86018054845181870281018701909552808552958501959294919385830193909260009084015b828210156125b457838290600052602060002001805461252790613dc5565b80601f016020809104026020016040519081016040528092919081815260200182805461255390613dc5565b80156125a05780601f10612575576101008083540402835291602001916125a0565b820191906000526020600020905b81548152906001019060200180831161258357829003601f168201915b505050505081526020019060010190612508565b5050509082525060029182015460ff9081161515602092830152928452600c850154930192909116908111156125fa57634e487b7160e01b600052602160045260246000fd5b600281111561261957634e487b7160e01b600052602160045260246000fd5b8152600c820154610100900460ff1615156020820152600d909101546040909101526080810151519091506001600160a01b031633148061266757506060810151516001600160a01b031633145b8061267f575060a0810151516001600160a01b031633145b61269b5760405162461bcd60e51b815260040161025590613cc8565b856000600460008381526020019081526020016000206040518061012001604052908160008201548152602001600182015481526020016002820180546126e190613dc5565b80601f016020809104026020016040519081016040528092919081815260200182805461270d90613dc5565b801561275a5780601f1061272f5761010080835404028352916020019161275a565b820191906000526020600020905b81548152906001019060200180831161273d57829003601f168201915b5050509183525050604080516060810182526003840180546001600160a01b0316825260048501805484516020828102820181019096528181529585019593949293858401939092919060009084015b828210156128565783829060005260206000200180546127c990613dc5565b80601f01602080910402602001604051908101604052809291908181526020018280546127f590613dc5565b80156128425780601f1061281757610100808354040283529160200191612842565b820191906000526020600020905b81548152906001019060200180831161282557829003601f168201915b5050505050815260200190600101906127aa565b505050908252506002919091015460ff161515602091820152908252604080516060810182526006850180546001600160a01b03168252600786018054845181870281018701909552808552958501959294919385830193909260009084015b828210156129625783829060005260206000200180546128d590613dc5565b80601f016020809104026020016040519081016040528092919081815260200182805461290190613dc5565b801561294e5780601f106129235761010080835404028352916020019161294e565b820191906000526020600020905b81548152906001019060200180831161293157829003601f168201915b5050505050815260200190600101906128b6565b505050908252506002919091015460ff161515602091820152908252604080516060810182526009850180546001600160a01b03168252600a86018054845181870281018701909552808552958501959294919385830193909260009084015b82821015612a6e5783829060005260206000200180546129e190613dc5565b80601f0160208091040260200160405190810160405280929190818152602001828054612a0d90613dc5565b8015612a5a5780601f10612a2f57610100808354040283529160200191612a5a565b820191906000526020600020905b815481529060010190602001808311612a3d57829003601f168201915b5050505050815260200190600101906129c2565b5050509082525060029182015460ff9081161515602092830152928452600c85015493019290911690811115612ab457634e487b7160e01b600052602160045260246000fd5b6002811115612ad357634e487b7160e01b600052602160045260246000fd5b8152600c820154610100900460ff1615156020820152600d90910154604090910152905060028160c001516002811115612b1d57634e487b7160e01b600052602160045260246000fd5b1415612b505760a0810151516001600160a01b03163314612b505760405162461bcd60e51b815260040161025590613bd7565b6000612b5b89611d88565b90508015612b6d576000975050610e1a565b600089815260046020526040902060068101546001600160a01b0316331415612c1857600581015460ff16612c185760405162461bcd60e51b815260206004820152604560248201527f50726f7669646572206d75737420617070726f7665207461736b206f6e20746860448201527f65697220656e64206265666f726520796f752063616e206f70656e2061206469606482015264737075746560d81b608482015260a401610255565b6000600c82015460ff166002811115612c4157634e487b7160e01b600052602160045260246000fd5b1415612cbb5760068101546001600160a01b0316331415612c885760088101805460ff1990811690915560058201805482169055600c820180549091166001179055610e13565b60038101546001600160a01b0316331415612cb6576006810154612cb69082906001600160a01b0316613227565b610e13565b6001600c82015460ff166002811115612ce457634e487b7160e01b600052602160045260246000fd5b1415612e475760068101546001600160a01b0316331415612c885760088101805460ff1990811690915560058201805482169055600c8201805460029216821790556040805180820190915260606020820152825481529082018054612d4990613dc5565b80601f0160208091040260200160405190810160405280929190818152602001828054612d7590613dc5565b8015612dc25780601f10612d9757610100808354040283529160200191612dc2565b820191906000526020600020905b815481529060010190602001808311612da557829003601f168201915b50505050506020828101918252600280546001810182556000829052845191027f405787fa12a823e0f2b7631cc41b3ba8828b3321ca811111fa75cd3aa3bb5ace81019182559251805185949293612e3e937f405787fa12a823e0f2b7631cc41b3ba8828b3321ca811111fa75cd3aa3bb5acf01920190613620565b50505050610e13565b6002600c82015460ff166002811115612e7057634e487b7160e01b600052602160045260246000fd5b1415610e13576006810154610e139082906001600160a01b0316613227565b60003411612eaf5760405162461bcd60e51b815260040161025590613c3e565b816000815111612ed15760405162461bcd60e51b815260040161025590613c81565b8160008111612ef25760405162461bcd60e51b815260040161025590613b52565b612efa61353d565b612f0261359b565b612f0a61359b565b6001600160a01b03881682523381526001548352606083018290526080830181905234602084015260408301879052600060c0840152612f4a8642613d57565b6101008401526040805180820182526000808252606060208084019182528751845284880180519092526001805484526004825294909220875181558288015194810194909455518051929387939092612fab926002850192910190613620565b50606082015180516003830180546001600160a01b0319166001600160a01b039092169190911781556020808301518051612fec92600487019201906135c7565b50604091909101516002909101805460ff1916911515919091179055608082015180516006830180546001600160a01b0319166001600160a01b03909216919091178155602080830151805161304892600787019201906135c7565b50604091909101516002909101805460ff191691151591909117905560a082015180516009830180546001600160a01b0319166001600160a01b0390921691909117815560208083015180516130a492600a87019201906135c7565b50604091909101516002918201805491151560ff1992831617905560c0840151600c8401805491939092919091169060019084908111156130f557634e487b7160e01b600052602160045260246000fd5b021790555060e0820151600c8201805461ff001916610100921515830217905590910151600d909101556001600160a01b0389166000908152600360209081526040822080546001818101835591845292829020845160029094020192835583820151805185949361316b938501920190613620565b505033600090815260036020908152604082208054600181810183559184529282902085516002909402019283558482015180518695506131b493928501929190910190613620565b5050600154600081815260046020526040908190205490517f29f3694a7f1bf1237139ba49f698a8a03b08ec5880b314324d2c8b71c76223f193506131ff9291889190831490613d2c565b60405180910390a16001805490600061321783613e00565b9190505550505050505050505050565b60098201546001600160a01b03166132785760018201546040516001600160a01b0383169180156108fc02916000818181858888f19350505050158015613272573d6000803e3d6000fd5b50613326565b60006064600054846001015461328e9190613d8f565b6132989190613d6f565b905060008184600101546132ac9190613dae565b6040519091506001600160a01b0384169082156108fc029083906000818181858888f193505050501580156132e5573d6000803e3d6000fd5b5060098401546040516001600160a01b039091169083156108fc029084906000818181858888f19350505050158015613322573d6000803e3d6000fd5b5050505b50600c01805461ff001916610100179055565b6000805b60025481101561339b57826002828154811061336957634e487b7160e01b600052603260045260246000fd5b90600052602060002090600202016000015414156133895780915061339b565b8061339381613e00565b91505061333d565b50805b6002548110156134b4576002546133b790600190613dae565b81141561340c5760028054806133dd57634e487b7160e01b600052603160045260246000fd5b600082815260208120600260001990930192830201818155906134036001830182613694565b50509055505050565b6002613419826001613d57565b8154811061343757634e487b7160e01b600052603260045260246000fd5b90600052602060002090600202016002828154811061346657634e487b7160e01b600052603260045260246000fd5b906000526020600020906002020160008201548160000155600182018160010190805461349290613dc5565b61349d9291906136d1565b5090505080806134ac90613e00565b91505061339e565b505050565b8280546134c590613dc5565b90600052602060002090601f0160209004810192826134e7576000855561352d565b82601f106135005782800160ff1982351617855561352d565b8280016001018555821561352d579182015b8281111561352d578235825591602001919060010190613512565b5061353992915061374c565b5090565b60405180610120016040528060008152602001600081526020016060815260200161356661359b565b815260200161357361359b565b815260200161358061359b565b81526020016000815260006020820181905260409091015290565b604051806060016040528060006001600160a01b03168152602001606081526020016000151581525090565b828054828255906000526020600020908101928215613614579160200282015b828111156136145782518051613604918491602090910190613620565b50916020019190600101906135e7565b50613539929150613761565b82805461362c90613dc5565b90600052602060002090601f01602090048101928261364e576000855561352d565b82601f1061366757805160ff191683800117855561352d565b8280016001018555821561352d579182015b8281111561352d578251825591602001919060010190613679565b5080546136a090613dc5565b6000825580601f106136b0575050565b601f0160209004906000526020600020908101906136ce919061374c565b50565b8280546136dd90613dc5565b90600052602060002090601f0160209004810192826136ff576000855561352d565b82601f10613710578054855561352d565b8280016001018555821561352d57600052602060002091601f016020900482015b8281111561352d578254825591600101919060010190613731565b5b80821115613539576000815560010161374d565b808211156135395760006137758282613694565b50600101613761565b600080600060608486031215613792578283fd5b83356001600160a01b03811681146137a8578384fd5b9250602084013567ffffffffffffffff808211156137c4578384fd5b818601915086601f8301126137d7578384fd5b8135818111156137e9576137e9613e31565b604051601f8201601f19908116603f0116810190838211818310171561381157613811613e31565b81604052828152896020848701011115613829578687fd5b82602086016020830137918201602001959095529497949650505050604092909201359150565b600060208284031215613861578081fd5b5035919050565b60008060006040848603121561387c578283fd5b83359250602084013567ffffffffffffffff8082111561389a578384fd5b818601915086601f8301126138ad578384fd5b8135818111156138bb578485fd5b8760208285010111156138cc578485fd5b6020830194508093505050509250925092565b600080604083850312156138f1578182fd5b50508035926020909101359150565b6003811061391e57634e487b7160e01b600052602160045260246000fd5b9052565b60008151808452815b818110156139475760208185018101518683018201520161392b565b818111156139585782602083870101525b50601f01601f19169290920160200192915050565b60006101208251845260208301516020850152604083015181604086015261399782860182613922565b915050606083015184820360608601526139b18282613a23565b915050608083015184820360808601526139cb8282613a23565b91505060a083015184820360a08601526139e58282613a23565b91505060c08301516139fa60c0860182613900565b5060e0830151613a0e60e086018215159052565b50610100928301519390920192909252919050565b60006060830160018060a01b03835116845260208084015160608287015282815180855260808801915060808160051b89010194508383019250855b81811015613a8d57607f19898703018352613a7b868551613922565b95509284019291840191600101613a5f565b50505050506040830151151560408501528091505092915050565b60006020808301818452808551808352604092508286019150828160051b870101848801865b83811015613b0d57888303603f19018552815180518452870151878401879052613afa87850182613922565b9588019593505090860190600101613ace565b509098975050505050505050565b60208082526019908201527f4d757374207061737320612076616c6964207461736b20494400000000000000604082015260600190565b60208082526021908201527f4d757374207061737320612076616c69642065787069726174696f6e206461746040820152606560f81b606082015260800190565b60208082526024908201527f54686973207461736b2068617320616c7265616479206265656e20636f6d706c604082015263195d195960e21b606082015260800190565b60208082526041908201527f4f6e6c7920746865207468697264207061727479206d6179206d616b6520612060408201527f6465636973696f6e2061742074686973207374616765206f66206469737075746060820152606560f81b608082015260a00190565b60208082526023908201527f4d7573742073656e6420657468657220746f20657865637574652066756e637460408201526234b7b760e91b606082015260800190565b60208082526027908201527f537472696e6720617267756d656e74206d757374206265206f662076616c6964604082015266040d8cadccee8d60cb1b606082015260800190565b60208082526031908201527f43616e206e6f7420696e74657261637420776974682061207461736b20796f7560408201527013b932903737ba1030903830b93a1037b360791b606082015260800190565b602081526000611e01602083018461396d565b838152606060208201526000613d45606083018561396d565b90508215156040830152949350505050565b60008219821115613d6a57613d6a613e1b565b500190565b600082613d8a57634e487b7160e01b81526012600452602481fd5b500490565b6000816000190483118215151615613da957613da9613e1b565b500290565b600082821015613dc057613dc0613e1b565b500390565b600181811c90821680613dd957607f821691505b60208210811415613dfa57634e487b7160e01b600052602260045260246000fd5b50919050565b6000600019821415613e1457613e14613e1b565b5060010190565b634e487b7160e01b600052601160045260246000fd5b634e487b7160e01b600052604160045260246000fdfea2646970667358221220f7a0ade1bd1c6fd89acf80a740dc873ef5cc438b435290b0178dfbe3a7ca03eb64736f6c63430008040033",
  "linkReferences": {},
  "deployedLinkReferences": {}
}