{
  "_format": "hh-sol-artifact-1",
  "contractName": "TaskAgreement",
  "sourceName": "contracts/TaskAgreement.sol",
  "abi": [
    {
      "anonymous": false,
      "inputs": [
        {
          "indexed": false,
          "internalType": "uint256",
          "name": "id",
          "type": "uint256"
        },
        {
          "components": [
            {
              "internalType": "uint256",
              "name": "id",
              "type": "uint256"
            },
            {
              "internalType": "uint256",
              "name": "price",
              "type": "uint256"
            },
            {
              "internalType": "string",
              "name": "description",
              "type": "string"
            },
            {
              "components": [
                {
                  "internalType": "address payable",
                  "name": "to",
                  "type": "address"
                },
                {
                  "internalType": "string[]",
                  "name": "evidence",
                  "type": "string[]"
                },
                {
                  "internalType": "bool",
                  "name": "approved",
                  "type": "bool"
                }
              ],
              "internalType": "struct TaskAgreement.User",
              "name": "provider",
              "type": "tuple"
            },
            {
              "components": [
                {
                  "internalType": "address payable",
                  "name": "to",
                  "type": "address"
                },
                {
                  "internalType": "string[]",
                  "name": "evidence",
                  "type": "string[]"
                },
                {
                  "internalType": "bool",
                  "name": "approved",
                  "type": "bool"
                }
              ],
              "internalType": "struct TaskAgreement.User",
              "name": "consumer",
              "type": "tuple"
            },
            {
              "components": [
                {
                  "internalType": "address payable",
                  "name": "to",
                  "type": "address"
                },
                {
                  "internalType": "string[]",
                  "name": "evidence",
                  "type": "string[]"
                },
                {
                  "internalType": "bool",
                  "name": "approved",
                  "type": "bool"
                }
              ],
              "internalType": "struct TaskAgreement.User",
              "name": "thirdParty",
              "type": "tuple"
            },
            {
              "internalType": "enum TaskAgreement.DisputeStage",
              "name": "dispute",
              "type": "uint8"
            },
            {
              "internalType": "bool",
              "name": "completed",
              "type": "bool"
            },
            {
              "internalType": "uint256",
              "name": "expiration",
              "type": "uint256"
            }
          ],
          "indexed": false,
          "internalType": "struct TaskAgreement.Task",
          "name": "task",
          "type": "tuple"
        },
        {
          "indexed": false,
          "internalType": "bool",
          "name": "success",
          "type": "bool"
        }
      ],
      "name": "TaskCreated",
      "type": "event"
    },
    {
      "inputs": [
        {
          "internalType": "uint256",
          "name": "taskId",
          "type": "uint256"
        },
        {
          "internalType": "string",
          "name": "evidence",
          "type": "string"
        }
      ],
      "name": "addEvidence",
      "outputs": [],
      "stateMutability": "nonpayable",
      "type": "function"
    },
    {
      "inputs": [
        {
          "internalType": "uint256",
          "name": "taskId",
          "type": "uint256"
        }
      ],
      "name": "addFunds",
      "outputs": [],
      "stateMutability": "payable",
      "type": "function"
    },
    {
      "inputs": [
        {
          "internalType": "uint256",
          "name": "taskId",
          "type": "uint256"
        }
      ],
      "name": "approveTask",
      "outputs": [],
      "stateMutability": "nonpayable",
      "type": "function"
    },
    {
      "inputs": [
        {
          "internalType": "uint256",
          "name": "taskId",
          "type": "uint256"
        }
      ],
      "name": "assignThirdParty",
      "outputs": [],
      "stateMutability": "nonpayable",
      "type": "function"
    },
    {
      "inputs": [],
      "name": "commission",
      "outputs": [
        {
          "internalType": "uint256",
          "name": "",
          "type": "uint256"
        }
      ],
      "stateMutability": "view",
      "type": "function"
    },
    {
      "inputs": [
        {
          "internalType": "address payable",
          "name": "providerAddress",
          "type": "address"
        },
        {
          "internalType": "string",
          "name": "description",
          "type": "string"
        },
        {
          "internalType": "uint256",
          "name": "expiresIn",
          "type": "uint256"
        }
      ],
      "name": "createTask",
      "outputs": [],
      "stateMutability": "payable",
      "type": "function"
    },
    {
      "inputs": [
        {
          "internalType": "uint256",
          "name": "taskId",
          "type": "uint256"
        }
      ],
      "name": "disapproveTask",
      "outputs": [],
      "stateMutability": "nonpayable",
      "type": "function"
    },
    {
      "inputs": [
        {
          "internalType": "uint256",
          "name": "taskId",
          "type": "uint256"
        }
      ],
      "name": "expireTask",
      "outputs": [],
      "stateMutability": "nonpayable",
      "type": "function"
    },
    {
      "inputs": [],
      "name": "getDisputedTasks",
      "outputs": [
        {
          "internalType": "uint256[]",
          "name": "",
          "type": "uint256[]"
        }
      ],
      "stateMutability": "view",
      "type": "function"
    },
    {
      "inputs": [
        {
          "internalType": "uint256",
          "name": "taskId",
          "type": "uint256"
        }
      ],
      "name": "getTask",
      "outputs": [
        {
          "components": [
            {
              "internalType": "uint256",
              "name": "id",
              "type": "uint256"
            },
            {
              "internalType": "uint256",
              "name": "price",
              "type": "uint256"
            },
            {
              "internalType": "string",
              "name": "description",
              "type": "string"
            },
            {
              "components": [
                {
                  "internalType": "address payable",
                  "name": "to",
                  "type": "address"
                },
                {
                  "internalType": "string[]",
                  "name": "evidence",
                  "type": "string[]"
                },
                {
                  "internalType": "bool",
                  "name": "approved",
                  "type": "bool"
                }
              ],
              "internalType": "struct TaskAgreement.User",
              "name": "provider",
              "type": "tuple"
            },
            {
              "components": [
                {
                  "internalType": "address payable",
                  "name": "to",
                  "type": "address"
                },
                {
                  "internalType": "string[]",
                  "name": "evidence",
                  "type": "string[]"
                },
                {
                  "internalType": "bool",
                  "name": "approved",
                  "type": "bool"
                }
              ],
              "internalType": "struct TaskAgreement.User",
              "name": "consumer",
              "type": "tuple"
            },
            {
              "components": [
                {
                  "internalType": "address payable",
                  "name": "to",
                  "type": "address"
                },
                {
                  "internalType": "string[]",
                  "name": "evidence",
                  "type": "string[]"
                },
                {
                  "internalType": "bool",
                  "name": "approved",
                  "type": "bool"
                }
              ],
              "internalType": "struct TaskAgreement.User",
              "name": "thirdParty",
              "type": "tuple"
            },
            {
              "internalType": "enum TaskAgreement.DisputeStage",
              "name": "dispute",
              "type": "uint8"
            },
            {
              "internalType": "bool",
              "name": "completed",
              "type": "bool"
            },
            {
              "internalType": "uint256",
              "name": "expiration",
              "type": "uint256"
            }
          ],
          "internalType": "struct TaskAgreement.Task",
          "name": "",
          "type": "tuple"
        }
      ],
      "stateMutability": "view",
      "type": "function"
    },
    {
      "inputs": [
        {
          "internalType": "address",
          "name": "userAddress",
          "type": "address"
        }
      ],
      "name": "getUserTasks",
      "outputs": [
        {
          "internalType": "uint256[]",
          "name": "",
          "type": "uint256[]"
        }
      ],
      "stateMutability": "view",
      "type": "function"
    }
  ],
  "bytecode": "0x6080604052600460005534801561001557600080fd5b50615a5380620000266000396000f3fe60806040526004361061009c5760003560e01c806395d576601161006457806395d5766014610182578063b0227721146101bf578063be999705146101ea578063c2aba82c14610206578063e14891911461022f578063fd24bf4b1461025a5761009c565b80630a07fae6146100a15780631c3665eb146100ca5780631d65e77e146100f3578063423bfe491461013057806362ecc47a14610159575b600080fd5b3480156100ad57600080fd5b506100c860048036038101906100c391906149e7565b610276565b005b3480156100d657600080fd5b506100f160048036038101906100ec9190614a10565b611356565b005b3480156100ff57600080fd5b5061011a600480360381019061011591906149e7565b611d1d565b60405161012791906150ad565b60405180910390f35b34801561013c57600080fd5b50610157600480360381019061015291906149e7565b6122bd565b005b34801561016557600080fd5b50610180600480360381019061017b91906149e7565b6125b3565b005b34801561018e57600080fd5b506101a960048036038101906101a49190614957565b6126b4565b6040516101b69190614eeb565b60405180910390f35b3480156101cb57600080fd5b506101d4612751565b6040516101e19190614eeb565b60405180910390f35b61020460048036038101906101ff91906149e7565b6127a9565b005b34801561021257600080fd5b5061022d600480360381019061022891906149e7565b6128bd565b005b34801561023b57600080fd5b50610244613c50565b60405161025191906150cf565b60405180910390f35b610274600480360381019061026f9190614980565b613c56565b005b8060015481106102bb576040517f08c379a00000000000000000000000000000000000000000000000000000000081526004016102b290614f0d565b60405180910390fd5b8160046000828152602001908152602001600020600c0160019054906101000a900460ff1615610320576040517f08c379a000000000000000000000000000000000000000000000000000000000815260040161031790614f8d565b60405180910390fd5b82600060046000838152602001908152602001600020604051806101200160405290816000820154815260200160018201548152602001600282018054610366906153f3565b80601f0160208091040260200160405190810160405280929190818152602001828054610392906153f3565b80156103df5780601f106103b4576101008083540402835291602001916103df565b820191906000526020600020905b8154815290600101906020018083116103c257829003601f168201915b50505050508152602001600382016040518060600160405290816000820160009054906101000a900473ffffffffffffffffffffffffffffffffffffffff1673ffffffffffffffffffffffffffffffffffffffff1673ffffffffffffffffffffffffffffffffffffffff16815260200160018201805480602002602001604051908101604052809291908181526020016000905b8282101561051f578382906000526020600020018054610492906153f3565b80601f01602080910402602001604051908101604052809291908181526020018280546104be906153f3565b801561050b5780601f106104e05761010080835404028352916020019161050b565b820191906000526020600020905b8154815290600101906020018083116104ee57829003601f168201915b505050505081526020019060010190610473565b5050505081526020016002820160009054906101000a900460ff1615151515815250508152602001600682016040518060600160405290816000820160009054906101000a900473ffffffffffffffffffffffffffffffffffffffff1673ffffffffffffffffffffffffffffffffffffffff1673ffffffffffffffffffffffffffffffffffffffff16815260200160018201805480602002602001604051908101604052809291908181526020016000905b8282101561067d5783829060005260206000200180546105f0906153f3565b80601f016020809104026020016040519081016040528092919081815260200182805461061c906153f3565b80156106695780601f1061063e57610100808354040283529160200191610669565b820191906000526020600020905b81548152906001019060200180831161064c57829003601f168201915b5050505050815260200190600101906105d1565b5050505081526020016002820160009054906101000a900460ff1615151515815250508152602001600982016040518060600160405290816000820160009054906101000a900473ffffffffffffffffffffffffffffffffffffffff1673ffffffffffffffffffffffffffffffffffffffff1673ffffffffffffffffffffffffffffffffffffffff16815260200160018201805480602002602001604051908101604052809291908181526020016000905b828210156107db57838290600052602060002001805461074e906153f3565b80601f016020809104026020016040519081016040528092919081815260200182805461077a906153f3565b80156107c75780601f1061079c576101008083540402835291602001916107c7565b820191906000526020600020905b8154815290600101906020018083116107aa57829003601f168201915b50505050508152602001906001019061072f565b5050505081526020016002820160009054906101000a900460ff1615151515815250508152602001600c820160009054906101000a900460ff16600281111561084d577f4e487b7100000000000000000000000000000000000000000000000000000000600052602160045260246000fd5b6002811115610885577f4e487b7100000000000000000000000000000000000000000000000000000000600052602160045260246000fd5b8152602001600c820160019054906101000a900460ff16151515158152602001600d82015481525050905080608001516000015173ffffffffffffffffffffffffffffffffffffffff163373ffffffffffffffffffffffffffffffffffffffff161480610925575080606001516000015173ffffffffffffffffffffffffffffffffffffffff163373ffffffffffffffffffffffffffffffffffffffff16145b8061096357508060a001516000015173ffffffffffffffffffffffffffffffffffffffff163373ffffffffffffffffffffffffffffffffffffffff16145b6109a2576040517f08c379a00000000000000000000000000000000000000000000000000000000081526004016109999061508d565b60405180910390fd5b846000600460008381526020019081526020016000206040518061012001604052908160008201548152602001600182015481526020016002820180546109e8906153f3565b80601f0160208091040260200160405190810160405280929190818152602001828054610a14906153f3565b8015610a615780601f10610a3657610100808354040283529160200191610a61565b820191906000526020600020905b815481529060010190602001808311610a4457829003601f168201915b50505050508152602001600382016040518060600160405290816000820160009054906101000a900473ffffffffffffffffffffffffffffffffffffffff1673ffffffffffffffffffffffffffffffffffffffff1673ffffffffffffffffffffffffffffffffffffffff16815260200160018201805480602002602001604051908101604052809291908181526020016000905b82821015610ba1578382906000526020600020018054610b14906153f3565b80601f0160208091040260200160405190810160405280929190818152602001828054610b40906153f3565b8015610b8d5780601f10610b6257610100808354040283529160200191610b8d565b820191906000526020600020905b815481529060010190602001808311610b7057829003601f168201915b505050505081526020019060010190610af5565b5050505081526020016002820160009054906101000a900460ff1615151515815250508152602001600682016040518060600160405290816000820160009054906101000a900473ffffffffffffffffffffffffffffffffffffffff1673ffffffffffffffffffffffffffffffffffffffff1673ffffffffffffffffffffffffffffffffffffffff16815260200160018201805480602002602001604051908101604052809291908181526020016000905b82821015610cff578382906000526020600020018054610c72906153f3565b80601f0160208091040260200160405190810160405280929190818152602001828054610c9e906153f3565b8015610ceb5780601f10610cc057610100808354040283529160200191610ceb565b820191906000526020600020905b815481529060010190602001808311610cce57829003601f168201915b505050505081526020019060010190610c53565b5050505081526020016002820160009054906101000a900460ff1615151515815250508152602001600982016040518060600160405290816000820160009054906101000a900473ffffffffffffffffffffffffffffffffffffffff1673ffffffffffffffffffffffffffffffffffffffff1673ffffffffffffffffffffffffffffffffffffffff16815260200160018201805480602002602001604051908101604052809291908181526020016000905b82821015610e5d578382906000526020600020018054610dd0906153f3565b80601f0160208091040260200160405190810160405280929190818152602001828054610dfc906153f3565b8015610e495780601f10610e1e57610100808354040283529160200191610e49565b820191906000526020600020905b815481529060010190602001808311610e2c57829003601f168201915b505050505081526020019060010190610db1565b5050505081526020016002820160009054906101000a900460ff1615151515815250508152602001600c820160009054906101000a900460ff166002811115610ecf577f4e487b7100000000000000000000000000000000000000000000000000000000600052602160045260246000fd5b6002811115610f07577f4e487b7100000000000000000000000000000000000000000000000000000000600052602160045260246000fd5b8152602001600c820160019054906101000a900460ff16151515158152602001600d820154815250509050600280811115610f6b577f4e487b7100000000000000000000000000000000000000000000000000000000600052602160045260246000fd5b8160c001516002811115610fa8577f4e487b7100000000000000000000000000000000000000000000000000000000600052602160045260246000fd5b1415611025578060a001516000015173ffffffffffffffffffffffffffffffffffffffff163373ffffffffffffffffffffffffffffffffffffffff1614611024576040517f08c379a000000000000000000000000000000000000000000000000000000000815260040161101b90614fad565b60405180910390fd5b5b61102e876125b3565b60006004600089815260200190815260200160002090508060060160000160009054906101000a900473ffffffffffffffffffffffffffffffffffffffff1673ffffffffffffffffffffffffffffffffffffffff163373ffffffffffffffffffffffffffffffffffffffff16141561119f578060030160020160009054906101000a900460ff166110f4576040517f08c379a00000000000000000000000000000000000000000000000000000000081526004016110eb9061500d565b60405180910390fd5b8060060160020160009054906101000a900460ff1615611149576040517f08c379a000000000000000000000000000000000000000000000000000000000815260040161114090614f4d565b60405180910390fd5b60018160060160020160006101000a81548160ff02191690831515021790555061119a818260030160000160009054906101000a900473ffffffffffffffffffffffffffffffffffffffff16614233565b611271565b8060030160000160009054906101000a900473ffffffffffffffffffffffffffffffffffffffff1673ffffffffffffffffffffffffffffffffffffffff163373ffffffffffffffffffffffffffffffffffffffff161415611270578060030160020160009054906101000a900460ff161561124f576040517f08c379a000000000000000000000000000000000000000000000000000000000815260040161124690614f4d565b60405180910390fd5b60018160030160020160006101000a81548160ff0219169083151502179055505b5b6002808111156112aa577f4e487b7100000000000000000000000000000000000000000000000000000000600052602160045260246000fd5b81600c0160009054906101000a900460ff1660028111156112f4577f4e487b7100000000000000000000000000000000000000000000000000000000600052602160045260246000fd5b141561134c5760018160090160020160006101000a81548160ff02191690831515021790555061134b818260030160000160009054906101000a900473ffffffffffffffffffffffffffffffffffffffff16614233565b5b5050505050505050565b82600154811061139b576040517f08c379a000000000000000000000000000000000000000000000000000000000815260040161139290614f0d565b60405180910390fd5b8360046000828152602001908152602001600020600c0160019054906101000a900460ff1615611400576040517f08c379a00000000000000000000000000000000000000000000000000000000081526004016113f790614f8d565b60405180910390fd5b84600060046000838152602001908152602001600020604051806101200160405290816000820154815260200160018201548152602001600282018054611446906153f3565b80601f0160208091040260200160405190810160405280929190818152602001828054611472906153f3565b80156114bf5780601f10611494576101008083540402835291602001916114bf565b820191906000526020600020905b8154815290600101906020018083116114a257829003601f168201915b50505050508152602001600382016040518060600160405290816000820160009054906101000a900473ffffffffffffffffffffffffffffffffffffffff1673ffffffffffffffffffffffffffffffffffffffff1673ffffffffffffffffffffffffffffffffffffffff16815260200160018201805480602002602001604051908101604052809291908181526020016000905b828210156115ff578382906000526020600020018054611572906153f3565b80601f016020809104026020016040519081016040528092919081815260200182805461159e906153f3565b80156115eb5780601f106115c0576101008083540402835291602001916115eb565b820191906000526020600020905b8154815290600101906020018083116115ce57829003601f168201915b505050505081526020019060010190611553565b5050505081526020016002820160009054906101000a900460ff1615151515815250508152602001600682016040518060600160405290816000820160009054906101000a900473ffffffffffffffffffffffffffffffffffffffff1673ffffffffffffffffffffffffffffffffffffffff1673ffffffffffffffffffffffffffffffffffffffff16815260200160018201805480602002602001604051908101604052809291908181526020016000905b8282101561175d5783829060005260206000200180546116d0906153f3565b80601f01602080910402602001604051908101604052809291908181526020018280546116fc906153f3565b80156117495780601f1061171e57610100808354040283529160200191611749565b820191906000526020600020905b81548152906001019060200180831161172c57829003601f168201915b5050505050815260200190600101906116b1565b5050505081526020016002820160009054906101000a900460ff1615151515815250508152602001600982016040518060600160405290816000820160009054906101000a900473ffffffffffffffffffffffffffffffffffffffff1673ffffffffffffffffffffffffffffffffffffffff1673ffffffffffffffffffffffffffffffffffffffff16815260200160018201805480602002602001604051908101604052809291908181526020016000905b828210156118bb57838290600052602060002001805461182e906153f3565b80601f016020809104026020016040519081016040528092919081815260200182805461185a906153f3565b80156118a75780601f1061187c576101008083540402835291602001916118a7565b820191906000526020600020905b81548152906001019060200180831161188a57829003601f168201915b50505050508152602001906001019061180f565b5050505081526020016002820160009054906101000a900460ff1615151515815250508152602001600c820160009054906101000a900460ff16600281111561192d577f4e487b7100000000000000000000000000000000000000000000000000000000600052602160045260246000fd5b6002811115611965577f4e487b7100000000000000000000000000000000000000000000000000000000600052602160045260246000fd5b8152602001600c820160019054906101000a900460ff16151515158152602001600d82015481525050905080608001516000015173ffffffffffffffffffffffffffffffffffffffff163373ffffffffffffffffffffffffffffffffffffffff161480611a05575080606001516000015173ffffffffffffffffffffffffffffffffffffffff163373ffffffffffffffffffffffffffffffffffffffff16145b80611a4357508060a001516000015173ffffffffffffffffffffffffffffffffffffffff163373ffffffffffffffffffffffffffffffffffffffff16145b611a82576040517f08c379a0000000000000000000000000000000000000000000000000000000008152600401611a799061508d565b60405180910390fd5b85858080601f016020809104026020016040519081016040528093929190818152602001838380828437600081840152601f19601f820116905080830192505050505050506000815111611b0b576040517f08c379a0000000000000000000000000000000000000000000000000000000008152600401611b029061502d565b60405180910390fd5b611b14886125b3565b6000600460008a815260200190815260200160002090508060060160000160009054906101000a900473ffffffffffffffffffffffffffffffffffffffff1673ffffffffffffffffffffffffffffffffffffffff163373ffffffffffffffffffffffffffffffffffffffff161415611bce5780600601600101888890918060018154018082558091505060019003906000526020600020016000909192909192909192909192509190611bc89291906145a8565b50611d12565b8060030160000160009054906101000a900473ffffffffffffffffffffffffffffffffffffffff1673ffffffffffffffffffffffffffffffffffffffff163373ffffffffffffffffffffffffffffffffffffffff161415611c715780600301600101888890918060018154018082558091505060019003906000526020600020016000909192909192909192909192509190611c6b9291906145a8565b50611d11565b8060090160000160009054906101000a900473ffffffffffffffffffffffffffffffffffffffff1673ffffffffffffffffffffffffffffffffffffffff163373ffffffffffffffffffffffffffffffffffffffff161415611d105780600901600101888890918060018154018082558091505060019003906000526020600020016000909192909192909192909192509190611d0e9291906145a8565b505b5b5b505050505050505050565b611d2561462e565b600060046000848152602001908152602001600020604051806101200160405290816000820154815260200160018201548152602001600282018054611d6a906153f3565b80601f0160208091040260200160405190810160405280929190818152602001828054611d96906153f3565b8015611de35780601f10611db857610100808354040283529160200191611de3565b820191906000526020600020905b815481529060010190602001808311611dc657829003601f168201915b50505050508152602001600382016040518060600160405290816000820160009054906101000a900473ffffffffffffffffffffffffffffffffffffffff1673ffffffffffffffffffffffffffffffffffffffff1673ffffffffffffffffffffffffffffffffffffffff16815260200160018201805480602002602001604051908101604052809291908181526020016000905b82821015611f23578382906000526020600020018054611e96906153f3565b80601f0160208091040260200160405190810160405280929190818152602001828054611ec2906153f3565b8015611f0f5780601f10611ee457610100808354040283529160200191611f0f565b820191906000526020600020905b815481529060010190602001808311611ef257829003601f168201915b505050505081526020019060010190611e77565b5050505081526020016002820160009054906101000a900460ff1615151515815250508152602001600682016040518060600160405290816000820160009054906101000a900473ffffffffffffffffffffffffffffffffffffffff1673ffffffffffffffffffffffffffffffffffffffff1673ffffffffffffffffffffffffffffffffffffffff16815260200160018201805480602002602001604051908101604052809291908181526020016000905b82821015612081578382906000526020600020018054611ff4906153f3565b80601f0160208091040260200160405190810160405280929190818152602001828054612020906153f3565b801561206d5780601f106120425761010080835404028352916020019161206d565b820191906000526020600020905b81548152906001019060200180831161205057829003601f168201915b505050505081526020019060010190611fd5565b5050505081526020016002820160009054906101000a900460ff1615151515815250508152602001600982016040518060600160405290816000820160009054906101000a900473ffffffffffffffffffffffffffffffffffffffff1673ffffffffffffffffffffffffffffffffffffffff1673ffffffffffffffffffffffffffffffffffffffff16815260200160018201805480602002602001604051908101604052809291908181526020016000905b828210156121df578382906000526020600020018054612152906153f3565b80601f016020809104026020016040519081016040528092919081815260200182805461217e906153f3565b80156121cb5780601f106121a0576101008083540402835291602001916121cb565b820191906000526020600020905b8154815290600101906020018083116121ae57829003601f168201915b505050505081526020019060010190612133565b5050505081526020016002820160009054906101000a900460ff1615151515815250508152602001600c820160009054906101000a900460ff166002811115612251577f4e487b7100000000000000000000000000000000000000000000000000000000600052602160045260246000fd5b6002811115612289577f4e487b7100000000000000000000000000000000000000000000000000000000600052602160045260246000fd5b8152602001600c820160019054906101000a900460ff16151515158152602001600d82015481525050905080915050919050565b806001548110612302576040517f08c379a00000000000000000000000000000000000000000000000000000000081526004016122f990614f0d565b60405180910390fd5b8160046000828152602001908152602001600020600c0160019054906101000a900460ff1615612367576040517f08c379a000000000000000000000000000000000000000000000000000000000815260040161235e90614f8d565b60405180910390fd5b612370836125b3565b6000600460008581526020019081526020016000209050600073ffffffffffffffffffffffffffffffffffffffff168160090160000160009054906101000a900473ffffffffffffffffffffffffffffffffffffffff1673ffffffffffffffffffffffffffffffffffffffff161461241d576040517f08c379a00000000000000000000000000000000000000000000000000000000081526004016124149061504d565b60405180910390fd5b600280811115612456577f4e487b7100000000000000000000000000000000000000000000000000000000600052602160045260246000fd5b81600c0160009054906101000a900460ff1660028111156124a0577f4e487b7100000000000000000000000000000000000000000000000000000000600052602160045260246000fd5b146124e0576040517f08c379a00000000000000000000000000000000000000000000000000000000081526004016124d790614fed565b60405180910390fd5b6124e86146c6565b33816000019073ffffffffffffffffffffffffffffffffffffffff16908173ffffffffffffffffffffffffffffffffffffffff1681525050808260090160008201518160000160006101000a81548173ffffffffffffffffffffffffffffffffffffffff021916908373ffffffffffffffffffffffffffffffffffffffff16021790555060208201518160010190805190602001906125889291906146ff565b5060408201518160020160006101000a81548160ff0219169083151502179055509050505050505050565b60006004600083815260200190815260200160002090508060030160020160009054906101000a900460ff1615801561266d5750600280811115612620577f4e487b7100000000000000000000000000000000000000000000000000000000600052602160045260246000fd5b81600c0160009054906101000a900460ff16600281111561266a577f4e487b7100000000000000000000000000000000000000000000000000000000600052602160045260246000fd5b14155b156126b0574281600d0154116126af576126ae818260060160000160009054906101000a900473ffffffffffffffffffffffffffffffffffffffff16614233565b5b5b5050565b60606000600360008473ffffffffffffffffffffffffffffffffffffffff1673ffffffffffffffffffffffffffffffffffffffff16815260200190815260200160002080548060200260200160405190810160405280929190818152602001828054801561274157602002820191906000526020600020905b81548152602001906001019080831161272d575b5050505050905080915050919050565b6060600280548060200260200160405190810160405280929190818152602001828054801561279f57602002820191906000526020600020905b81548152602001906001019080831161278b575b5050505050905090565b600034116127ec576040517f08c379a00000000000000000000000000000000000000000000000000000000081526004016127e390614fcd565b60405180910390fd5b6127f5816125b3565b60006004600083815260200190815260200160002090508060060160000160009054906101000a900473ffffffffffffffffffffffffffffffffffffffff1673ffffffffffffffffffffffffffffffffffffffff163373ffffffffffffffffffffffffffffffffffffffff16146128a1576040517f08c379a000000000000000000000000000000000000000000000000000000000815260040161289890614f2d565b60405180910390fd5b3481600101546128b1919061521d565b81600101819055505050565b806001548110612902576040517f08c379a00000000000000000000000000000000000000000000000000000000081526004016128f990614f0d565b60405180910390fd5b8160046000828152602001908152602001600020600c0160019054906101000a900460ff1615612967576040517f08c379a000000000000000000000000000000000000000000000000000000000815260040161295e90614f8d565b60405180910390fd5b826000600460008381526020019081526020016000206040518061012001604052908160008201548152602001600182015481526020016002820180546129ad906153f3565b80601f01602080910402602001604051908101604052809291908181526020018280546129d9906153f3565b8015612a265780601f106129fb57610100808354040283529160200191612a26565b820191906000526020600020905b815481529060010190602001808311612a0957829003601f168201915b50505050508152602001600382016040518060600160405290816000820160009054906101000a900473ffffffffffffffffffffffffffffffffffffffff1673ffffffffffffffffffffffffffffffffffffffff1673ffffffffffffffffffffffffffffffffffffffff16815260200160018201805480602002602001604051908101604052809291908181526020016000905b82821015612b66578382906000526020600020018054612ad9906153f3565b80601f0160208091040260200160405190810160405280929190818152602001828054612b05906153f3565b8015612b525780601f10612b2757610100808354040283529160200191612b52565b820191906000526020600020905b815481529060010190602001808311612b3557829003601f168201915b505050505081526020019060010190612aba565b5050505081526020016002820160009054906101000a900460ff1615151515815250508152602001600682016040518060600160405290816000820160009054906101000a900473ffffffffffffffffffffffffffffffffffffffff1673ffffffffffffffffffffffffffffffffffffffff1673ffffffffffffffffffffffffffffffffffffffff16815260200160018201805480602002602001604051908101604052809291908181526020016000905b82821015612cc4578382906000526020600020018054612c37906153f3565b80601f0160208091040260200160405190810160405280929190818152602001828054612c63906153f3565b8015612cb05780601f10612c8557610100808354040283529160200191612cb0565b820191906000526020600020905b815481529060010190602001808311612c9357829003601f168201915b505050505081526020019060010190612c18565b5050505081526020016002820160009054906101000a900460ff1615151515815250508152602001600982016040518060600160405290816000820160009054906101000a900473ffffffffffffffffffffffffffffffffffffffff1673ffffffffffffffffffffffffffffffffffffffff1673ffffffffffffffffffffffffffffffffffffffff16815260200160018201805480602002602001604051908101604052809291908181526020016000905b82821015612e22578382906000526020600020018054612d95906153f3565b80601f0160208091040260200160405190810160405280929190818152602001828054612dc1906153f3565b8015612e0e5780601f10612de357610100808354040283529160200191612e0e565b820191906000526020600020905b815481529060010190602001808311612df157829003601f168201915b505050505081526020019060010190612d76565b5050505081526020016002820160009054906101000a900460ff1615151515815250508152602001600c820160009054906101000a900460ff166002811115612e94577f4e487b7100000000000000000000000000000000000000000000000000000000600052602160045260246000fd5b6002811115612ecc577f4e487b7100000000000000000000000000000000000000000000000000000000600052602160045260246000fd5b8152602001600c820160019054906101000a900460ff16151515158152602001600d82015481525050905080608001516000015173ffffffffffffffffffffffffffffffffffffffff163373ffffffffffffffffffffffffffffffffffffffff161480612f6c575080606001516000015173ffffffffffffffffffffffffffffffffffffffff163373ffffffffffffffffffffffffffffffffffffffff16145b80612faa57508060a001516000015173ffffffffffffffffffffffffffffffffffffffff163373ffffffffffffffffffffffffffffffffffffffff16145b612fe9576040517f08c379a0000000000000000000000000000000000000000000000000000000008152600401612fe09061508d565b60405180910390fd5b8460006004600083815260200190815260200160002060405180610120016040529081600082015481526020016001820154815260200160028201805461302f906153f3565b80601f016020809104026020016040519081016040528092919081815260200182805461305b906153f3565b80156130a85780601f1061307d576101008083540402835291602001916130a8565b820191906000526020600020905b81548152906001019060200180831161308b57829003601f168201915b50505050508152602001600382016040518060600160405290816000820160009054906101000a900473ffffffffffffffffffffffffffffffffffffffff1673ffffffffffffffffffffffffffffffffffffffff1673ffffffffffffffffffffffffffffffffffffffff16815260200160018201805480602002602001604051908101604052809291908181526020016000905b828210156131e857838290600052602060002001805461315b906153f3565b80601f0160208091040260200160405190810160405280929190818152602001828054613187906153f3565b80156131d45780601f106131a9576101008083540402835291602001916131d4565b820191906000526020600020905b8154815290600101906020018083116131b757829003601f168201915b50505050508152602001906001019061313c565b5050505081526020016002820160009054906101000a900460ff1615151515815250508152602001600682016040518060600160405290816000820160009054906101000a900473ffffffffffffffffffffffffffffffffffffffff1673ffffffffffffffffffffffffffffffffffffffff1673ffffffffffffffffffffffffffffffffffffffff16815260200160018201805480602002602001604051908101604052809291908181526020016000905b828210156133465783829060005260206000200180546132b9906153f3565b80601f01602080910402602001604051908101604052809291908181526020018280546132e5906153f3565b80156133325780601f1061330757610100808354040283529160200191613332565b820191906000526020600020905b81548152906001019060200180831161331557829003601f168201915b50505050508152602001906001019061329a565b5050505081526020016002820160009054906101000a900460ff1615151515815250508152602001600982016040518060600160405290816000820160009054906101000a900473ffffffffffffffffffffffffffffffffffffffff1673ffffffffffffffffffffffffffffffffffffffff1673ffffffffffffffffffffffffffffffffffffffff16815260200160018201805480602002602001604051908101604052809291908181526020016000905b828210156134a4578382906000526020600020018054613417906153f3565b80601f0160208091040260200160405190810160405280929190818152602001828054613443906153f3565b80156134905780601f1061346557610100808354040283529160200191613490565b820191906000526020600020905b81548152906001019060200180831161347357829003601f168201915b5050505050815260200190600101906133f8565b5050505081526020016002820160009054906101000a900460ff1615151515815250508152602001600c820160009054906101000a900460ff166002811115613516577f4e487b7100000000000000000000000000000000000000000000000000000000600052602160045260246000fd5b600281111561354e577f4e487b7100000000000000000000000000000000000000000000000000000000600052602160045260246000fd5b8152602001600c820160019054906101000a900460ff16151515158152602001600d8201548152505090506002808111156135b2577f4e487b7100000000000000000000000000000000000000000000000000000000600052602160045260246000fd5b8160c0015160028111156135ef577f4e487b7100000000000000000000000000000000000000000000000000000000600052602160045260246000fd5b141561366c578060a001516000015173ffffffffffffffffffffffffffffffffffffffff163373ffffffffffffffffffffffffffffffffffffffff161461366b576040517f08c379a000000000000000000000000000000000000000000000000000000000815260040161366290614fad565b60405180910390fd5b5b613675876125b3565b60006004600089815260200190815260200160002090508060060160000160009054906101000a900473ffffffffffffffffffffffffffffffffffffffff1673ffffffffffffffffffffffffffffffffffffffff163373ffffffffffffffffffffffffffffffffffffffff16141561373c578060030160020160009054906101000a900460ff1661373b576040517f08c379a00000000000000000000000000000000000000000000000000000000081526004016137329061506d565b60405180910390fd5b5b60006002811115613776577f4e487b7100000000000000000000000000000000000000000000000000000000600052602160045260246000fd5b81600c0160009054906101000a900460ff1660028111156137c0577f4e487b7100000000000000000000000000000000000000000000000000000000600052602160045260246000fd5b141561394c578060060160000160009054906101000a900473ffffffffffffffffffffffffffffffffffffffff1673ffffffffffffffffffffffffffffffffffffffff163373ffffffffffffffffffffffffffffffffffffffff1614156138b95760008160060160020160006101000a81548160ff02191690831515021790555060008160030160020160006101000a81548160ff021916908315150217905550600181600c0160006101000a81548160ff021916908360028111156138af577f4e487b7100000000000000000000000000000000000000000000000000000000600052602160045260246000fd5b0217905550613947565b8060030160000160009054906101000a900473ffffffffffffffffffffffffffffffffffffffff1673ffffffffffffffffffffffffffffffffffffffff163373ffffffffffffffffffffffffffffffffffffffff16141561394657613945818260060160000160009054906101000a900473ffffffffffffffffffffffffffffffffffffffff16614233565b5b5b613c46565b60016002811115613986577f4e487b7100000000000000000000000000000000000000000000000000000000600052602160045260246000fd5b81600c0160009054906101000a900460ff1660028111156139d0577f4e487b7100000000000000000000000000000000000000000000000000000000600052602160045260246000fd5b1415613b89578060060160000160009054906101000a900473ffffffffffffffffffffffffffffffffffffffff1673ffffffffffffffffffffffffffffffffffffffff163373ffffffffffffffffffffffffffffffffffffffff161415613af65760008160060160020160006101000a81548160ff02191690831515021790555060008160030160020160006101000a81548160ff021916908315150217905550600281600c0160006101000a81548160ff02191690836002811115613abf577f4e487b7100000000000000000000000000000000000000000000000000000000600052602160045260246000fd5b0217905550600281600001549080600181540180825580915050600190039060005260206000200160009091909190915055613b84565b8060030160000160009054906101000a900473ffffffffffffffffffffffffffffffffffffffff1673ffffffffffffffffffffffffffffffffffffffff163373ffffffffffffffffffffffffffffffffffffffff161415613b8357613b82818260060160000160009054906101000a900473ffffffffffffffffffffffffffffffffffffffff16614233565b5b5b613c45565b600280811115613bc2577f4e487b7100000000000000000000000000000000000000000000000000000000600052602160045260246000fd5b81600c0160009054906101000a900460ff166002811115613c0c577f4e487b7100000000000000000000000000000000000000000000000000000000600052602160045260246000fd5b1415613c4457613c43818260060160000160009054906101000a900473ffffffffffffffffffffffffffffffffffffffff16614233565b5b5b5b5050505050505050565b60005481565b60003411613c99576040517f08c379a0000000000000000000000000000000000000000000000000000000008152600401613c9090614fcd565b60405180910390fd5b816000815111613cde576040517f08c379a0000000000000000000000000000000000000000000000000000000008152600401613cd59061502d565b60405180910390fd5b60008211613d21576040517f08c379a0000000000000000000000000000000000000000000000000000000008152600401613d1890614f6d565b60405180910390fd5b613d2961462e565b613d316146c6565b613d396146c6565b86826000019073ffffffffffffffffffffffffffffffffffffffff16908173ffffffffffffffffffffffffffffffffffffffff168152505033816000019073ffffffffffffffffffffffffffffffffffffffff16908173ffffffffffffffffffffffffffffffffffffffff16815250506001548360000181815250508183606001819052508083608001819052503483602001818152505085836040018190525060008360c001906002811115613e19577f4e487b7100000000000000000000000000000000000000000000000000000000600052602160045260246000fd5b90816002811115613e53577f4e487b7100000000000000000000000000000000000000000000000000000000600052602160045260246000fd5b815250508442613e63919061521d565b836101000181815250508260046000600154815260200190815260200160002060008201518160000155602082015181600101556040820151816002019080519060200190613eb392919061475f565b5060608201518160030160008201518160000160006101000a81548173ffffffffffffffffffffffffffffffffffffffff021916908373ffffffffffffffffffffffffffffffffffffffff1602179055506020820151816001019080519060200190613f209291906146ff565b5060408201518160020160006101000a81548160ff021916908315150217905550505060808201518160060160008201518160000160006101000a81548173ffffffffffffffffffffffffffffffffffffffff021916908373ffffffffffffffffffffffffffffffffffffffff1602179055506020820151816001019080519060200190613faf9291906146ff565b5060408201518160020160006101000a81548160ff021916908315150217905550505060a08201518160090160008201518160000160006101000a81548173ffffffffffffffffffffffffffffffffffffffff021916908373ffffffffffffffffffffffffffffffffffffffff160217905550602082015181600101908051906020019061403e9291906146ff565b5060408201518160020160006101000a81548160ff021916908315150217905550505060c082015181600c0160006101000a81548160ff021916908360028111156140b2577f4e487b7100000000000000000000000000000000000000000000000000000000600052602160045260246000fd5b021790555060e082015181600c0160016101000a81548160ff02191690831515021790555061010082015181600d0155905050600360008873ffffffffffffffffffffffffffffffffffffffff1673ffffffffffffffffffffffffffffffffffffffff16815260200190815260200160002083600001519080600181540180825580915050600190039060005260206000200160009091909190915055600360003373ffffffffffffffffffffffffffffffffffffffff1673ffffffffffffffffffffffffffffffffffffffff168152602001908152602001600020836000015190806001815401808255809150506001900390600052602060002001600090919091909150557f29f3694a7f1bf1237139ba49f698a8a03b08ec5880b314324d2c8b71c76223f160015484600154600460006001548152602001908152602001600020600001541460405161420a939291906150ea565b60405180910390a16001600081548092919061422590615456565b919050555050505050505050565b600073ffffffffffffffffffffffffffffffffffffffff168260090160000160009054906101000a900473ffffffffffffffffffffffffffffffffffffffff1673ffffffffffffffffffffffffffffffffffffffff1614156142df578073ffffffffffffffffffffffffffffffffffffffff166108fc83600101549081150290604051600060405180830381858888f193505050501580156142d9573d6000803e3d6000fd5b506143da565b6000606460005484600101546142f591906152a4565b6142ff9190615273565b9050600081846001015461431391906152fe565b90508273ffffffffffffffffffffffffffffffffffffffff166108fc829081150290604051600060405180830381858888f1935050505015801561435b573d6000803e3d6000fd5b508360090160000160009054906101000a900473ffffffffffffffffffffffffffffffffffffffff1673ffffffffffffffffffffffffffffffffffffffff166108fc839081150290604051600060405180830381858888f193505050501580156143c9573d6000803e3d6000fd5b506143d784600001546143fb565b50505b600182600c0160016101000a81548160ff0219169083151502179055505050565b600080600090505b60028054905081101561447757826002828154811061444b577f4e487b7100000000000000000000000000000000000000000000000000000000600052603260045260246000fd5b9060005260206000200154141561446457809150614477565b808061446f90615456565b915050614403565b5060008190505b6002805490508110156145a357600160028054905061449d91906152fe565b8114156144f75760028054806144dc577f4e487b7100000000000000000000000000000000000000000000000000000000600052603160045260246000fd5b600190038181906000526020600020016000905590556145a3565b6002600182614506919061521d565b8154811061453d577f4e487b7100000000000000000000000000000000000000000000000000000000600052603260045260246000fd5b906000526020600020015460028281548110614582577f4e487b7100000000000000000000000000000000000000000000000000000000600052603260045260246000fd5b9060005260206000200181905550808061459b90615456565b91505061447e565b505050565b8280546145b4906153f3565b90600052602060002090601f0160209004810192826145d6576000855561461d565b82601f106145ef57803560ff191683800117855561461d565b8280016001018555821561461d579182015b8281111561461c578235825591602001919060010190614601565b5b50905061462a91906147e5565b5090565b6040518061012001604052806000815260200160008152602001606081526020016146576146c6565b81526020016146646146c6565b81526020016146716146c6565b8152602001600060028111156146b0577f4e487b7100000000000000000000000000000000000000000000000000000000600052602160045260246000fd5b8152602001600015158152602001600081525090565b6040518060600160405280600073ffffffffffffffffffffffffffffffffffffffff168152602001606081526020016000151581525090565b82805482825590600052602060002090810192821561474e579160200282015b8281111561474d57825182908051906020019061473d92919061475f565b509160200191906001019061471f565b5b50905061475b9190614802565b5090565b82805461476b906153f3565b90600052602060002090601f01602090048101928261478d57600085556147d4565b82601f106147a657805160ff19168380011785556147d4565b828001600101855582156147d4579182015b828111156147d35782518255916020019190600101906147b8565b5b5090506147e191906147e5565b5090565b5b808211156147fe5760008160009055506001016147e6565b5090565b5b8082111561482257600081816148199190614826565b50600101614803565b5090565b508054614832906153f3565b6000825580601f106148445750614863565b601f01602090049060005260206000209081019061486291906147e5565b5b50565b60006148796148748461514d565b615128565b90508281526020810184848401111561489157600080fd5b61489c8482856153b1565b509392505050565b6000813590506148b3816159d8565b92915050565b6000813590506148c8816159ef565b92915050565b60008083601f8401126148e057600080fd5b8235905067ffffffffffffffff8111156148f957600080fd5b60208301915083600182028301111561491157600080fd5b9250929050565b600082601f83011261492957600080fd5b8135614939848260208601614866565b91505092915050565b60008135905061495181615a06565b92915050565b60006020828403121561496957600080fd5b6000614977848285016148a4565b91505092915050565b60008060006060848603121561499557600080fd5b60006149a3868287016148b9565b935050602084013567ffffffffffffffff8111156149c057600080fd5b6149cc86828701614918565b92505060406149dd86828701614942565b9150509250925092565b6000602082840312156149f957600080fd5b6000614a0784828501614942565b91505092915050565b600080600060408486031215614a2557600080fd5b6000614a3386828701614942565b935050602084013567ffffffffffffffff811115614a5057600080fd5b614a5c868287016148ce565b92509250509250925092565b6000614a748383614ba3565b905092915050565b6000614a888383614ecd565b60208301905092915050565b614a9d81615344565b82525050565b6000614aae8261519e565b614ab881856151d9565b935083602082028501614aca8561517e565b8060005b85811015614b065784840389528151614ae78582614a68565b9450614af2836151bf565b925060208a01995050600181019050614ace565b50829750879550505050505092915050565b6000614b23826151a9565b614b2d81856151ea565b9350614b388361518e565b8060005b83811015614b69578151614b508882614a7c565b9750614b5b836151cc565b925050600181019050614b3c565b5085935050505092915050565b614b7f81615356565b82525050565b614b8e81615356565b82525050565b614b9d8161539f565b82525050565b6000614bae826151b4565b614bb881856151fb565b9350614bc88185602086016153c0565b614bd18161558a565b840191505092915050565b6000614be960198361520c565b9150614bf48261559b565b602082019050919050565b6000614c0c602c8361520c565b9150614c17826155c4565b604082019050919050565b6000614c2f60208361520c565b9150614c3a82615613565b602082019050919050565b6000614c5260218361520c565b9150614c5d8261563c565b604082019050919050565b6000614c7560248361520c565b9150614c808261568b565b604082019050919050565b6000614c9860418361520c565b9150614ca3826156da565b606082019050919050565b6000614cbb60238361520c565b9150614cc68261574f565b604082019050919050565b6000614cde60418361520c565b9150614ce98261579e565b606082019050919050565b6000614d01603e8361520c565b9150614d0c82615813565b604082019050919050565b6000614d2460278361520c565b9150614d2f82615862565b604082019050919050565b6000614d4760348361520c565b9150614d52826158b1565b604082019050919050565b6000614d6a60458361520c565b9150614d7582615900565b606082019050919050565b6000614d8d60318361520c565b9150614d9882615975565b604082019050919050565b600061012083016000830151614dbc6000860182614ecd565b506020830151614dcf6020860182614ecd565b5060408301518482036040860152614de78282614ba3565b91505060608301518482036060860152614e018282614e7d565b91505060808301518482036080860152614e1b8282614e7d565b91505060a083015184820360a0860152614e358282614e7d565b91505060c0830151614e4a60c0860182614b94565b5060e0830151614e5d60e0860182614b76565b50610100830151614e72610100860182614ecd565b508091505092915050565b6000606083016000830151614e956000860182614a94565b5060208301518482036020860152614ead8282614aa3565b9150506040830151614ec26040860182614b76565b508091505092915050565b614ed681615395565b82525050565b614ee581615395565b82525050565b60006020820190508181036000830152614f058184614b18565b905092915050565b60006020820190508181036000830152614f2681614bdc565b9050919050565b60006020820190508181036000830152614f4681614bff565b9050919050565b60006020820190508181036000830152614f6681614c22565b9050919050565b60006020820190508181036000830152614f8681614c45565b9050919050565b60006020820190508181036000830152614fa681614c68565b9050919050565b60006020820190508181036000830152614fc681614c8b565b9050919050565b60006020820190508181036000830152614fe681614cae565b9050919050565b6000602082019050818103600083015261500681614cd1565b9050919050565b6000602082019050818103600083015261502681614cf4565b9050919050565b6000602082019050818103600083015261504681614d17565b9050919050565b6000602082019050818103600083015261506681614d3a565b9050919050565b6000602082019050818103600083015261508681614d5d565b9050919050565b600060208201905081810360008301526150a681614d80565b9050919050565b600060208201905081810360008301526150c78184614da3565b905092915050565b60006020820190506150e46000830184614edc565b92915050565b60006060820190506150ff6000830186614edc565b81810360208301526151118185614da3565b90506151206040830184614b85565b949350505050565b6000615132615143565b905061513e8282615425565b919050565b6000604051905090565b600067ffffffffffffffff8211156151685761516761555b565b5b6151718261558a565b9050602081019050919050565b6000819050602082019050919050565b6000819050602082019050919050565b600081519050919050565b600081519050919050565b600081519050919050565b6000602082019050919050565b6000602082019050919050565b600082825260208201905092915050565b600082825260208201905092915050565b600082825260208201905092915050565b600082825260208201905092915050565b600061522882615395565b915061523383615395565b9250827fffffffffffffffffffffffffffffffffffffffffffffffffffffffffffffffff038211156152685761526761549f565b5b828201905092915050565b600061527e82615395565b915061528983615395565b925082615299576152986154ce565b5b828204905092915050565b60006152af82615395565b91506152ba83615395565b9250817fffffffffffffffffffffffffffffffffffffffffffffffffffffffffffffffff04831182151516156152f3576152f261549f565b5b828202905092915050565b600061530982615395565b915061531483615395565b9250828210156153275761532661549f565b5b828203905092915050565b600061533d82615375565b9050919050565b600061534f82615375565b9050919050565b60008115159050919050565b6000819050615370826159c4565b919050565b600073ffffffffffffffffffffffffffffffffffffffff82169050919050565b6000819050919050565b60006153aa82615362565b9050919050565b82818337600083830152505050565b60005b838110156153de5780820151818401526020810190506153c3565b838111156153ed576000848401525b50505050565b6000600282049050600182168061540b57607f821691505b6020821081141561541f5761541e61552c565b5b50919050565b61542e8261558a565b810181811067ffffffffffffffff8211171561544d5761544c61555b565b5b80604052505050565b600061546182615395565b91507fffffffffffffffffffffffffffffffffffffffffffffffffffffffffffffffff8214156154945761549361549f565b5b600182019050919050565b7f4e487b7100000000000000000000000000000000000000000000000000000000600052601160045260246000fd5b7f4e487b7100000000000000000000000000000000000000000000000000000000600052601260045260246000fd5b7f4e487b7100000000000000000000000000000000000000000000000000000000600052602160045260246000fd5b7f4e487b7100000000000000000000000000000000000000000000000000000000600052602260045260246000fd5b7f4e487b7100000000000000000000000000000000000000000000000000000000600052604160045260246000fd5b6000601f19601f8301169050919050565b7f4d757374207061737320612076616c6964207461736b20494400000000000000600082015250565b7f4f6e6c792074686520636f6e73756d6572206f662074686973207461736b206d60008201527f6179206164642066756e64730000000000000000000000000000000000000000602082015250565b7f596f752063616e206e6f7420617070726f76652061207461736b207477696365600082015250565b7f4d757374207061737320612076616c69642065787069726174696f6e2064617460008201527f6500000000000000000000000000000000000000000000000000000000000000602082015250565b7f54686973207461736b2068617320616c7265616479206265656e20636f6d706c60008201527f6574656400000000000000000000000000000000000000000000000000000000602082015250565b7f4f6e6c7920746865207468697264207061727479206d6179206d616b6520612060008201527f6465636973696f6e2061742074686973207374616765206f662064697370757460208201527f6500000000000000000000000000000000000000000000000000000000000000604082015250565b7f4d7573742073656e6420657468657220746f20657865637574652066756e637460008201527f696f6e0000000000000000000000000000000000000000000000000000000000602082015250565b7f43616e6e6f742061737369676e206120746869726420706172747920746f207460008201527f686973207461736b20756e74696c20696e7465726e616c6c792064656369646560208201527f6400000000000000000000000000000000000000000000000000000000000000604082015250565b7f50726f7669646572206d75737420617070726f7665207461736b206265666f7260008201527f6520796f752063616e20617070726f766520657468207472616e736665720000602082015250565b7f537472696e6720617267756d656e74206d757374206265206f662076616c696460008201527f206c656e67746800000000000000000000000000000000000000000000000000602082015250565b7f412074686972642070617274792068617320616c7265616479206265656e206160008201527f737369676e656420746f2074686973207461736b000000000000000000000000602082015250565b7f50726f7669646572206d75737420617070726f7665207461736b206f6e20746860008201527f65697220656e64206265666f726520796f752063616e206f70656e206120646960208201527f7370757465000000000000000000000000000000000000000000000000000000604082015250565b7f43616e206e6f7420696e74657261637420776974682061207461736b20796f7560008201527f277265206e6f7420612070617274206f66000000000000000000000000000000602082015250565b600381106159d5576159d46154fd565b5b50565b6159e181615332565b81146159ec57600080fd5b50565b6159f881615344565b8114615a0357600080fd5b50565b615a0f81615395565b8114615a1a57600080fd5b5056fea2646970667358221220bc77c8654c5d2f1ae024a81d0bfdaa9be56f8baaf82156a294ba5c5664c49ff564736f6c63430008040033",
  "linkReferences": {},
  "deployedLinkReferences": {}
}